:020000040800F2
:1000000000000220310E0008810E0008810E000859
:10001000810E0008810E0008810E0008000000001B
:10002000000000000000000000000000810E000839
:10003000810E000800000000810E0008150E000867
:10004000810E0008810E0008810E0008810E000854
:10005000810E0008810E0008810E0008810E000844
:10006000810E0008810E0008810E0008810E000834
:10007000810E0008810E0008810E0008810E000824
:10008000810E0008810E0008810E0008810E000814
:10009000810E0008810E0008810E0008810E000804
:1000A000810E0008810E0008810E0008810E0008F4
:1000B000810E0008810E0008810E0008810E0008E4
:1000C000810E0008810E0008810E0008810E0008D4
:1000D000810E0008810E0008810E0008810E0008C4
:1000E000810E0008810E0008810E0008810E0008B4
:1000F000810E0008810E0008810E0008810E0008A4
:10010000810E0008810E0008810E0008810E000893
:10011000810E0008810E0008810E0008810E000883
:10012000810E0008810E0008810E0008810E000873
:10013000810E0008810E0008810E0008810E000863
:10014000810E0008810E0008810E0008810E000853
:10015000810E0008810E0008810E0008810E000843
:10016000810E0008810E0008810E0008810E000833
:10017000810E0008810E0008810E0008810E000823
:04018000810E0008E4
:10018400D486000800000020B4090020D4860008AA
:100194000000000000000000B4090020BC0A002098
:1001A4000000000000000000F8B500BFF8BC08BC67
:1001B4009E467047F8B500BFF8BC08BC9E46704721
:0C01C4003104000805020008E1010008F9
:1001E00010B5054C237833B9044B13B10448AFF371
:1001F00000800123237010BDB4090020000000001E
:10020000C8860008084B10B51BB108480849AFF371
:1002100000800848036803B910BD074B002BFBD0D2
:10022000BDE81040184700BF00000000C886000865
:10023000B8090020B409002000000000162030A1F9
:10024000ABBE2F484168364A11600168002901D1D0
:10025000324901608168C268002900D08D46002AB9
:1002600001D002F5807A00218B460F462548264AA8
:10027000121A00F08FF800F0E7F9152025A1ABBEA7
:100280002449002001B40B780131002B15D0202B1C
:10029000F9D0222B01D0272B01D11A0001E0202216
:1002A000013902B401300B780131002B05D09A429C
:1002B000F9D100224B1E1A70E5E769460200920050
:1002C0006A446B469A4206D9043A14681D68156060
:1002D0001C600433F6E76C460725AC43A5460400D2
:1002E0000D000A48002802D0094800F015F900F076
:1002F00029F82000290000F071FB00F013F800BF7E
:1003000000000020B4090020BC0A002019050008E4
:100310002505000810000020FF000000BC0A002096
:100320003C05002008B50021044600F08BF8044B82
:100330001868C36B03B19847204600F03BFB00BF31
:10034000047F000870B50F4E0F4D761BB61018BF16
:10035000002405D0013455F8043B9847A642F9D152
:100360000A4E0B4DFFF722FF761BB61018BF002474
:1003700006D0013455F8043B9847A642F9D170BD28
:1003800070BD00BFC4010008C4010008CC01000812
:10039000C401000870B4840746D0541E002A41D01E
:1003A000CDB2034602E0621EE4B3144603F8015BDB
:1003B0009A07F8D1032C2ED9CDB245EA05250F2C8A
:1003C00045EA054519D9264603F11002103E0F2EC5
:1003D00042F8105C42F80C5C42F8085C42F8045C9D
:1003E00002F11002F2D8A4F1100222F00F0204F080
:1003F0000F041032032C13440DD91E462246043A32
:10040000032A46F8045BFAD8221F22F003020432C2
:10041000134404F003042CB1C9B21C4403F8011BBB
:10042000A342FBD170BC704714460346C2E700BF2D
:10043000024B13B1024800F06FB870470000000093
:10044000250500082DE9F04F81460E46304B83B05C
:100450001B68009303F5A4730193009BD3F84871C4
:1004600027B3DDF804A07C68651E0ED4013407EBC9
:1004700084044FF00008E6B1D4F80031B34218D03C
:10048000013D6B1CA4F10404F5D1224B73B17B68D0
:10049000002B36D13B68002B34D03846CAF80030E8
:1004A000AFF30080DAF80070002FDCD103B0BDE8B4
:1004B000F08F7B682268013BAB420CBF7D60C4F8C3
:1004C0000080002ADCD0D7F888310121A9401942E8
:1004D000D7F804B008D190477B685B45BDD1DAF806
:1004E0000030BB42CCD0B8E7D7F88C31194204D1E8
:1004F0004846D4F880109047EEE7D4F88000904743
:10050000EAE73B68BA461F46002FACD1CEE700BFF2
:10051000047F000800000000014600200246034658
:1005200000F016B838B5084B084DED1AAC1018BFDE
:10053000ED1805D0013C55F8043D9847002CF9D141
:10054000BDE83840FFF738BECC010008D0010008F4
:100550002DE9F047254C064625688846D5F84841E0
:1005600092469946C4B360681F2817DC411C76B1D7
:1005700004EB8003C3F888A0D4F88851012282409C
:100580001543022EC4F88851C3F808911ED0831C6D
:100590006160002044F82380BDE8F087144B03B36A
:1005A0004FF4C870AFF300800446D0B1D5F848319D
:1005B000002784E888003846C5F848410121C4F87E
:1005C0008871C4F88C71002EE1D0D1E7D4F88C3159
:1005D0001A43C4F88C21DAE705F5A674C5F848413A
:1005E000C1E74FF0FF30BDE8F08700BF047F00088F
:1005F000000000000B4B10B50446186808B1836B6F
:100600004BB1132C0BD8084850F83430013306D0C6
:1006100000EBC40010BD02F097FA132CF3D90020B0
:1006200010BD00BF38050020E009002070B502F0C1
:1006300007FA13240546002620463146ABBE044681
:100640004FF0FF302C6070BD2DE9F047DFF894804B
:1006500084B003270023CDF804800124039701AE62
:10066000029320463146ABBE81461B4D0423CDF894
:100670000480C5F800900397029320463146ABBE34
:100680008246DFF864900823CDF80480C9F800A002
:100690000397029320463146ABBE04460F4BD9F870
:1006A0000060621C1C6008BF34460D4808BF1E6015
:1006B0004FF0FF31002340F833100133142B084A68
:1006C000F9D1296800231160966014615360D360EA
:1006D000536104B0BDE8F087D8090020DC09002090
:1006E000E0090020087F0008D009002030B585B05F
:1006F000019002910392062401AD20462946ABBE2B
:100700000446631C02D0204605B030BDFFF78EFFC3
:1007100005B030BD70B50E461546FFF76BFF0446B9
:1007200058B1314600682A46FFF7E0FF431C03D06A
:100730006368281A0344636070BD02F081F90923DD
:1007400003604FF0FF3070BDF0B583B00D46144626
:10075000FFF750FF0646002839D0022C26D8012C7E
:1007600021D0022C11D06F4633680A248DE828006E
:1007700020463946ABBE0446631C1ED020460028E6
:1007800022DB2846756003B0F0BD036802AF0C247D
:1007900047F8083D20463946ABBE0446611C0FD0E1
:1007A00020460544E0E74368ED18DCD502F048F93F
:1007B000162303604FF0FF30E5E7FFF737FFDEE772
:1007C000FFF734FF421CECD14FF0FF30DBE702F0C3
:1007D00037F9092303604FF0FF30D4E7FFF7B4BFC8
:1007E00030B585B0019002910392052401AD2046F9
:1007F0002946ABBE0446631C02D0204605B030BD7E
:10080000FFF714FF05B030BD70B50E461546FFF773
:10081000F1FE0446E0B12A4631460068FFF7E0FFEA
:10082000021E12DB6368A81A03449542636000D07D
:1008300070BD02F005F9132506460024284621461E
:10084000ABBE05463560204670BD4FF0FF30EFE788
:1008500002F0F6F8092303604FF0FF3070BD00BFCF
:1008600070B582B00446FFF7C5FE064618B3013CDA
:10087000012C11D9336802AD022445F8043D20460D
:100880002946ABBE0446631C10D0204610B94FF079
:10089000FF33336002B070BD0A4B9A681B699A42FD
:1008A000E8D14FF0FF3303600020F3E7FFF7BEFE0F
:1008B0000028EFD1EBE702F0C3F8092303604FF003
:1008C000FF30E7E7E00900200E4A0346106810B544
:1008D00098B1694603448B4208D80B490B4C096810
:1008E000A14201D08B4201D8136010BD02F0A8F8DC
:1008F0000C2303604FF0FF3010BD0549084611601E
:10090000E7E700BFD40900203C050020ADDEFECAA9
:10091000BC0A002070B50D46FFF76CFE0646B0B16C
:100920006B684FF4806243F400536B60EA620C24FE
:1009300020463146ABBE0446621C03D020462861E7
:10094000002070BDFFF772FE431CF8D170BD02F0AD
:1009500077F8092303604FF0FF3070BD38B50C46BF
:100960000546002120463C22FFF714FD284621467B
:10097000BDE83840FFF7CEBF70B5FFF73BFE044639
:1009800090B1092528462146ABBE0446012C09D06A
:1009900002F056F813250646002428462146ABBE31
:1009A00005463560204670BD02F04AF80923036011
:1009B000F8E700BF4FF0FF3100F000B8062930B56E
:1009C0000CBF044D044D182420462946ABBE0446F6
:1009D000204630BD230002002600020080B5F8B09A
:1009E00000AF00F0D3F9FFF72FFE3B1D184600F0D3
:1009F000B9FA054802F020FC3B1D184601211E22D1
:100A000000F0F8FAFEE700BF0C7F000880B485B064
:100A100000AF78607B6803F00703FB600C4BDB687A
:100A2000BB60BA684FF6FF031340BB60FB681A0255
:100A3000BB68134343F0BF6343F40033BB60044A15
:100A4000BB68D3601437BD465DF8047B704700BFB8
:100A500000ED00E080B400AF044BDB6803F4E0631A
:100A60001B0A1846BD465DF8047B704700ED00E0A8
:100A700080B483B000AF03463960FB7197F907304B
:100A8000002B0BDA0D49FB7903F00F03043B3A68A6
:100A9000D2B21201D2B20B441A7609E0084997F992
:100AA00007303A68D2B21201D2B20B4483F8002365
:100AB0000C37BD465DF8047B704700BF00ED00E0D9
:100AC00000E100E080B489B000AFF860B9607A60FE
:100AD000FB6803F00703FB61FB69C3F10703042B09
:100AE00028BF0423BB61FB690433062B02D9FB69D1
:100AF000033B00E000237B61BB69012202FA03F3A0
:100B00005A1EBB681A407B699A407B69012101FA31
:100B100003F3591E7B680B40134318462437BD4628
:100B20005DF8047B704700BF80B582B000AF78608D
:100B30007B68013BB3F1807F01D301230FE00A4AB8
:100B40007B68013B53604FF0FF300F21FFF790FFB0
:100B5000054B00229A60044B07221A6000231846B6
:100B60000837BD4680BD00BF10E000E080B582B010
:100B700000AF78607868FFF749FF0837BD4680BD51
:100B800080B586B000AF0346B9607A60FB7300237E
:100B90007B61FFF75FFF78617869B9687A68FFF772
:100BA00091FF024697F90F3018461146FFF760FF94
:100BB0001837BD4680BD00BF80B582B000AF7860F9
:100BC0007868FFF7B1FF034618460837BD4680BD79
:100BD00080B582B000AF78607B68002B01D1012323
:100BE0001DE07B6893F83930DBB2002B06D17B68BF
:100BF000002283F83820786800F016F87B6802221B
:100C000083F839207B681A687B68043310461946DC
:100C100000F014F87B68012283F83920002318467D
:100C20000837BD4680BD00BF80B483B000AF786098
:100C30000C37BD465DF8047B704700BF80B485B0BB
:100C400000AF786039600023FB607B681B68FB6045
:100C50007B68434A934213D07B68B3F1804F0FD037
:100C60007B68404A93420BD07B683F4A934207D04F
:100C70007B683E4A934203D07B683D4A934201D150
:100C8000012300E00023002B08D0FB6823F0700351
:100C9000FB603B685B68FA681343FB607B68304A23
:100CA00093422BD07B68B3F1804F27D07B682D4ACD
:100CB000934223D07B682C4A93421FD07B682B4AF7
:100CC00093421BD07B682A4A934217D07B68294AFB
:100CD000934213D07B68284A93420FD07B68274AFF
:100CE00093420BD07B68264A934207D07B68254A03
:100CF000934203D07B68244A934201D1012300E050
:100D00000023002B08D0FB6823F44073FB603B6892
:100D1000DB68FA681343FB607B68FA681A603B681B
:100D20009A687B68DA623B681A687B689A627B68BB
:100D30000B4A934203D07B680D4A934201D10123B1
:100D400000E00023002B03D03B681A697B681A631C
:100D50007B6801225A611437BD465DF8047B7047F9
:100D6000000001400004004000080040000C00406A
:100D7000000401400040014000440140004801409F
:100D800000180040001C00400020004080B500AF6B
:100D90000E4A0E4B1B6843F4007313600B4A0B4B57
:100DA0001B6843F480631360084A084B1B6843F4D4
:100DB000807313600320FFF7D9FE0F2000F00EF8B8
:100DC00000F006F80023184680BD00BF003C02403A
:100DD00080B400AFBD465DF8047B704780B582B03B
:100DE00000AF7860094B1B68094AA2FB03239B09EB
:100DF0001846FFF7E1FE4FF0FF3079680022FFF759
:100E0000BFFE002318460837BD4680BD40050020C0
:100E1000D34D621080B400AF044B1B680133034A0A
:100E20001360BD465DF8047B704700BFB40A002024
:100E3000DFF834D0002103E00C4B5B584350043101
:100E40000B480C4B42189A42F6D30B4A02E000239F
:100E500042F8043B094B9A42F9D300F013F8FFF72C
:100E600071FAFFF7BBFD704700000220D48600082E
:100E700000000020B4090020B4090020BC0A0020B2
:100E8000FEE7000080B500AF114A114B1B6843F02C
:100E9000010313600E4B00229A600D4A0C4B1B6835
:100EA00023F0847323F480331360094B094A5A609A
:100EB000074A074B1B6823F480231360044B00226E
:100EC000DA6000F00BF8044B4FF000629A6080BDCE
:100ED000003802401030002400ED00E080B400AF84
:100EE0001D4A1D4B9B6893601B4A1B4B9B6843F438
:100EF00000439360184A184B9B6843F4A0539360D7
:100F0000154B164A5A60144A134B1B6843F0807302
:100F1000136000BF104B1B6803F00073002BF9D067
:100F20000F4B40F203721A600B4A0B4B9B6823F085
:100F300003039360084A084B9B6843F002039360E5
:100F400000BF054B9B6803F00C03082BF9D1BD468D
:100F50005DF8047B704700BF003802401030000885
:100F6000003C024080B584B000AF78607B684FF0F1
:100F700080421A600023FB600F4A0F4B1B6C43F04A
:100F8000010313640C4B1B6C03F00103FB60FB6853
:100F90007B6801225A607B6800229A607B684FF070
:100FA000FF32DA607B6801221A617868FFF710FE71
:100FB0001037BD4680BD00BF0038024080B483B00A
:100FC00000AF78607B681B6800225A620C37BD4610
:100FD0005DF8047B704700BF80B483B000AF7860D9
:100FE0007B681B685B6A18460C37BD465DF8047B5E
:100FF000704700BF80B5B0B000AF78600B46FB70A3
:101000001346BB70FB78012B03D0022B00F0D68077
:1010100061E1B24802F010F90023C7F8BC3039E0B2
:101020007868FFF7CBFF07F12C03184601F006FCA8
:101030007868FFF7D1FF0346A948194602F0B6F8D1
:101040007868FFF7BBFF07F12C031846A54920225B
:1010500001F010FC7868FFF7BFFF0346A04819466F
:1010600002F0A4F87868FFF7A9FF07F12C0207F156
:1010700098031046194601F043FC7868FFF7ACFF6F
:1010800003469948194602F091F8D7F8BC3001336D
:10109000C7F8BC30BA78D7F8BC309A42C0DC934865
:1010A00002F0CAF80023C7F8B83039E07868FFF7D3
:1010B00085FF07F12C03184601F0C0FB7868FFF7A5
:1010C0008BFF03468A48194602F070F87868FFF7EC
:1010D00075FF07F12C0318468649402201F0CAFB30
:1010E0007868FFF779FF03468148194602F05EF8F9
:1010F0007868FFF763FF07F12C0207F198031046A9
:10110000194601F0FDFB7868FFF766FF0346764855
:10111000194602F04BF8D7F8B8300133C7F8B830A9
:10112000BA78D7F8B8309A42C0DC704802F084F838
:101130000023C7F8B4303AE07868FFF73FFF07F1C3
:101140002C03184601F07AFB7868FFF745FF034649
:101150006748194602F02AF87868FFF72FFF07F171
:101160002C03184664494FF4806201F083FB7868D1
:10117000FFF732FF03465E48194602F017F8786819
:10118000FFF71CFF07F12C0207F1980310461946E0
:1011900001F0B6FB7868FFF71FFF03465248194677
:1011A00002F004F8D7F8B4300133C7F8B430BA7895
:1011B000D7F8B4309A42BFDC00BF8CE04F4802F051
:1011C0003BF80023C7F8B03039E07868FFF7F6FE47
:1011D00007F12C03184600F031FA7868FFF7FCFE9F
:1011E00003463F48194601F0E1FF7868FFF7E6FE45
:1011F00007F12C0318464249202200F04BFA786888
:10120000FFF7EAFE03463648194601F0CFFF78683B
:10121000FFF7D4FE07F12C0207F10C031046194624
:1012200000F080FA7868FFF7D7FE03462E4819468B
:1012300001F0BCFFD7F8B0300133C7F8B030BA784E
:10124000D7F8B0309A42C0DC2E4801F0F5FF0023F9
:10125000C7F8AC3039E07868FFF7B0FE07F12C032F
:10126000184600F0EBF97868FFF7B6FE0346204811
:10127000194601F09BFF7868FFF7A0FE07F12C03E9
:1012800018462149402200F005FA7868FFF7A4FECD
:1012900003461748194601F089FF7868FFF78EFE6C
:1012A00007F12C0207F10C031046194600F03AFA38
:1012B0007868FFF791FE03460B48194601F076FF68
:1012C000D7F8AC300133C7F8AC30BA78D7F8AC30C7
:1012D0009A42C0DC00BFC037BD4680BDD483000841
:1012E000E4830008147F0008E8830008EC8300080A
:1012F00000840008347F0008747F0008048400081C
:1013000074830008188400089483000803462DE9BC
:10131000F04FCDB0039003A900F10802283352F832
:10132000040F9A4241F8040FF9D103990BAA01F175
:10133000680053F8041F834242F8041FF9D10DF1ED
:101340003008444619AF14AE1BAD302057F8041FC7
:10135000D4F804E04FEA714282EAF14256F804CF31
:1013600054F8043B82EA91214FEAFE12614482EA7A
:10137000BE42194482EADE030B44013845F8043FBB
:10138000E4D1DFF8B492019008A847C8CA46C34622
:10139000B146079F04AB93E80850019E82EA01041E
:1013A0004FEAB0150DF1300858F8266085EAF025AF
:1013B000044085EA7065544002962C449E4E019D7F
:1013C0004CEA030856F82550029E08EA0E083444F9
:1013D0004FEAB30686EA73362C440CEA030586EA24
:1013E000B35648EA05084C44B044DBF80450DAF838
:1013F0000460274481EA00094444354407EA0909A6
:1014000044EA030689EA01094FEAB7182A444FEA79
:10141000B4054A4488EAF72804EA030906EA0C06F8
:1014200085EA743546EA090685EAB45588EA77689C
:1014300090447219DAF80860DBF808504244C64458
:1014400087EA00080EEA080835440D4442EA04061B
:101450004FEABE1988EA00084FEAB201A84489EAB7
:10146000FE2902EA04051E4081EA72312E4389EA10
:101470007E6981EAB251C1443144DBF80C50DAF89C
:101480000C6001EB0908CC448EEA07090CEA090953
:101490003544054448EA02064FEABC1189EA0709C7
:1014A0004FEAB80081EAFC21264080EA7830A9445E
:1014B00008EA020581EA7C612E4380EAB85089443B
:1014C000DBF81050DAF81010304400EB09064B44FA
:1014D0008CEA0E0005EB010903EA000585EA0E051A
:1014E0004FEAB31046EA08014F444FEAB60980EAD2
:1014F000F32011402F4489EA763906EA080580EA8C
:101500007360294389EAB65901EB09050744DAF803
:101510001410DBF8140007EB040983EA0C042F44D1
:10152000451809EA040080EA0C00AE444FEAB914F9
:1015300047EA06014FEAB705864401EA080107EACF
:10154000060084EAF92485EA7735014384EA796460
:1015500085EAB75574440D44DBF81800DAF8181022
:1015600005EB040E224489EA0304451802EA04004C
:101570005840AC444FEAB2144EEA07014FEABE05A8
:10158000844484EAF2240EEA0700314085EA7E357D
:10159000014384EA726485EABE55A4440D44DBF835
:1015A0001C40DAF81C000CEB0801AC4482EA090587
:1015B00004EB000801EA0504434484EA09044CEA08
:1015C0000E00234438400CEA0E0420434FEAB115C4
:1015D000019C4FEABC0885EAF12588EA7C3808348A
:1015E00085EA716588EABC582B448044402C03EBA3
:1015F000060001940BF1200B0AF1200A43447FF40A
:10160000CCAE09910399089004AC0493CDF82C90CA
:1016100007970A92CDF818E0CDF814C00C310820D5
:1016200001E054F8043F0A680138134441F8043BD0
:10163000F7D14DB0BDE8F08F408400080346F0B507
:10164000DFF848C0DFF848E00A4F0B4E0B4D0C4C5A
:101650000C490D4A0020C3F80CC0C3F810E05F61CC
:101660009E61DD611C6259629A62186058609860E0
:10167000F0BD00BF72F36E3C3AF54FA57F520E519C
:101680008C68059BABD9831F19CDE05B67E6096ABF
:1016900085AE67BB2DE9F047044600F12C06904665
:1016A000CAB1894600F16805002720684946C0F1A3
:1016B000400AC24528BFC2463044524601F0FCFCF5
:1016C0002368CAEB08085344402BD144236005D05B
:1016D000B8F1000FE9D10020BDE8F08704F128003F
:1016E00050F8041F01F0FF231A0A01F0FF1342EA29
:1016F00003234FEA3343A8420360F1D12046FFF7AA
:1017000005FE68B9626802F140039A42636002D93B
:10171000A3680133A3602760B8F1000FC5D1DAE7F1
:10172000BDE8F0872DE9F84F0446036840680D4690
:10173000C2189042626004F12C0802D9A2680132FA
:10174000A260591C8022216008F803202368382BEE
:1017500071D8C3F1380204F1280704F1680608EBD8
:1017600003000021FEF716FE38466368A268590F91
:1017700001EBC202DB006360A26050F8041F01F0BD
:10178000FF231A0A01F0FF1342EA03234FEA33430F
:10179000B0420360F1D12646636856F8082F204610
:1017A0006266A366FFF7B2FD002869D1304604F1F6
:1017B0000C0650F8041F01F0FF231A0A01F0FF1372
:1017C00042EA03234FEA3343B8420360F1D1306861
:1017D0007168B268F36828606960AA60EB6030697C
:1017E000F3697169B26928610020EB610346DFF893
:1017F000A0B0DFF8A0A0DFF8A090DFF8A080DFF8AD
:10180000A0C0DFF8A0E0204F204E6961AA61C4F8B3
:101810000CB0C4F810A0C4F81490C4F81880C4F830
:101820001CC0C4F820E06762A66220606060A0600F
:101830001846BDE8F88F274608EB0300C3F14002C5
:101840000021FEF7A7FD402347F8283B384604F166
:10185000680650F8041F01F0FF231A0A01F0FF1375
:1018600042EA03234FEA3343B0420360F1D12046FA
:10187000FFF74CFD03460028DAD1206038226EE7DE
:1018800003461846BDE8F88FABD9831F19CDE05B3E
:1018900067E6096A85AE67BB72F36E3C3AF54FA501
:1018A0007F520E518C68059B0246036D2DE9F04F67
:1018B00018461346526D99B016461A469B6D4FEA6C
:1018C000B0081D46D36D14901C461346D2681846C6
:1018D00017461A46DB6C13950E931369149A0893F6
:1018E00085EA06031340139A0E9D964653400E9ABE
:1018F00017944FEAB20C426909973C4488EA0607FC
:1019000001922F400246089D8069DB49159602909E
:10191000AE4415988E4477400EEB070686460E9D22
:101920000C4404EBF56423440298019C8CEA0805FE
:10193000924600EB01091D401046A644D26985EA93
:1019400008050EEB01042C4415464FEAB30706EBDD
:10195000F36687EA0C034FEAB60E334004EBF664F5
:1019600083EA0C03C8448EEA070608EB030226400C
:10197000036A05EB01084FEAB40902EBF462C444C0
:10198000DAF8244086EA0700604403EB010C0B956B
:101990000C9367440F94A446544689EA0E061640F9
:1019A0004FEAB20800EBF26086EA0E05DAF828206A
:1019B00088EA09063D4405EBF0654FEAB00702EB03
:1019C000010A0640109220462246E46A86EA09038C
:1019D00026468C44E64487EA080C0CEA050C126B98
:1019E000D1448CEA080403964C4406EB01091646E0
:1019F00073444FEAB50E03EBF5638EEA07051D400D
:101A0000C84485EA07024244B046049606464FEAB7
:101A1000B30C04EBF3648CEA0E054FEAB409436B94
:101A20008844254002EBF46289EA0C0B474485EABE
:101A30000E00059303EB010A384433460BEA020714
:101A4000B346B46BD64487EA0C0604EB010ADF6B9D
:101A50000694DBF84040D4440D9707EB010A274673
:101A60004FEAB20800EBF26088EA0902764402EA23
:101A7000000E4FEAB00206EBF0668EEA090382EA36
:101A80000800634400EA060C4FEAB60003EBF66375
:101A9000D1448CEA080480EA020607971E404C44B1
:101AA00007EB0109DBF844704FEAB30CC84486EA3F
:101AB0000205009704EBF3648CEA0007454405EB4C
:101AC000F4654FEAB40807EA0409029C019BA646A4
:101AD000099E089C5E40009B039F03EB010A524451
:101AE0008EEA040A079C7E40DBF8483066404FEAE5
:101AF000F676CDF858B0089303EB010B334689EA2C
:101B0000000788EA0C0909EA0509584489EA0C0E1D
:101B1000864418460B9E17444FEAB50207EBF5675B
:101B200082EA08094FEAB7050EEBF76EB34609EAF9
:101B300007090C9F08446044BC46049C019E09931D
:101B4000059B8AEA040A8BEA0606009C029F5E4017
:101B500089EA08038CEA070B0344089F0F987E402C
:101B600007460B988AEA040A4FEAFA7A4740069831
:101B700054464FEAF6768BEA000B30460D9E85EA16
:101B800002097740099E4FEABE0C04EB010A09EAFC
:101B90000E0903EBFE630A940AEB080E0B9089EA28
:101BA00002048CEA050800EB01098BEA060B0C988D
:101BB000109E08EA030886EA000A4A4488EA0506F5
:101BC0001644039A0A989046474007984FEAFB7BD1
:101BD0000F9A74448AEA000A4FEAB30E0B984FEA50
:101BE000F77704EBF3640C978EEA0C095944234B06
:101BF0004FEAB40706EBF46609EA040988EA020230
:101C0000049C01EB05088AEA000A0C991098CD188B
:101C10004440009889EA0C09AC44089D424087EA98
:101C20000E0182EA0B026C40059D71404FEAF27290
:101C3000029261440C9AAC4654404FEAF474039DFE
:101C40000394069C08EB0900A1464FEAFA7ACDF806
:101C500004A000EBF6604FEAB60A019E8CEA050C80
:101C600006EB03088AEA070601EBF065464008EB3D
:101C70000E010E4404E000BF9979825AA1EBD96E9F
:101C80000299099A01EB030E049CBE448CEA020CF3
:101C9000019A039F89EA0404B9460D9F8CEA020C5D
:101CA0003A46059F4FEAB00057400A9A80EA0A0177
:101CB0005440029A4FEAB508694054400B9A06EB2B
:101CC000F5664FEAFC7C88EA00059944714401EB13
:101CD000F661D14475404FEAB60A57406646079A06
:101CE0001E449646069ACDF810C04FEAF4748AEA6C
:101CF000080C3044009E8CEA010C8EEA020E22464B
:101D00006044B446039C4D44674005EBF1654FEADF
:101D1000F7774FEAB101059781EA0A074FEAB5095B
:101D20000D9E00EBF5607D40059FD418A0448CEA21
:101D3000060CFC18049E0C9F8EEA0B0E8EEA060E13
:101D40008CEA070C089F4FEAFE7ECDF818E0BE46ED
:101D50000F920F9F079A89EA010645444640544472
:101D60008CEA070C4FEAB00A019F05EBF060069D74
:101D70008EEA020E1D44099A8EEA070E34448AEA5E
:101D80000907009E4FEAFC7CCDF81CC0294447405F
:101D900082EA060C0F44059E079904EBF0644FEAB3
:101DA000B00502988EEA060ECE1806998CEA000C51
:101DB0008CEA010C0A994FEAFE7E884685EA0A0001
:101DC000CDF800E0089A07EBF4674FEAB40EB1448F
:101DD0004440039E88EA0208A144079C88EA06085A
:101DE00088EA04088EEA05014FEAFC7C4FEAF8789D
:101DF000CDF820C009EBF7694FEAB70C79404746A8
:101E00000098099A18440B9E5044049C0844089971
:101E100056406640CC188CEA0E0181EA090125443F
:101E20000D443946009A0F9C56400A9A00EBF9601F
:101E30008BEA020A4FEAF6720992089A4FEAB90948
:101E400019448AEA040A10978E4489EA0C07099912
:101E50008AEA020A05EBF0654FEAB0084FEAFA7A1F
:101E60007840CDF828A0CC18704488EA09014FEAE0
:101E7000B50A00EBF56069400A9D0C9AAE460B9ED0
:101E8000059F56407E40019FA44487EA0B0B109F9C
:101E9000029C7E40069F4FEAF6760B968BEA070B74
:101EA000099E84EA0207079A9E448BEA060B574074
:101EB000039AF1444FEAFB7ECDF830E096468AEA79
:101EC000080585EA00060B9D019AEC180A9D8EEA2A
:101ED000020B6F400C9D009AAE46A0444FEAF77784
:101EE0000B9C01978BEA020B049F029A8BEA040B6E
:101EF0006144089C01EBF0617A404FEAB00080EA4F
:101F00000A0CB1446240019C4FEAB10609EBF16949
:101F10008CEA0101414404EB03080C9C9E4462409E
:101F20000F9CF2444FEAFB7ECDF808E0A6464FEA4C
:101F3000B90701EBF96187EA060C86EA00058CEA2D
:101F4000010C4044039C84444FEAF27202980392CD
:101F5000109A8EEA040400EB030E019806EB0E08BB
:101F60005440039E444006EB030B4FEAF476059C75
:101F700085EA0905A6465544049C05EBF1650D96D6
:101F8000099E0CEBF5608EEA040C8CEA060C029EAE
:101F90000F9C8CEA060C069E4FEAFC7E7440764647
:101FA0004FEAB10181EA070A4FEAB5028AEA05055C
:101FB00082EA0109454405EBF0654FEAB00889EA79
:101FC00000090D9888EA020A034419440A9B5F44F9
:101FD0005C40039B8AEA050A4F4407EBF5675144CE
:101FE0004FEAB5055C404FEAB70901EBF76347EAF2
:101FF000050E079907EA050C4FEAF477059C04974C
:10200000D74881EA040704990B9C01EB000B0F965B
:102010000D990644674032444F40069E00990EEAEF
:10202000080E4FEAF7774EEA0C0C81EA060E3946A5
:102030000C9F43EA090A8EEA070E0F9F624402EBE7
:10204000F36203EA09040AEA050A4FEAB3038EEAD7
:10205000070742EA0306D8444AEA040A4FEAF77738
:102060000597C244089F06EA0908079E0C1887EAEC
:10207000060C019E2544049C8CEA060C8CEA040C98
:10208000109C0AEBF26AA64602EA030B059F4FEA90
:10209000B20211914AEA0201009C0AEA020648EAE9
:1020A0000B0B0744194031435D44029E4F4405EB3E
:1020B000FA658EEA040E4FEABA0A0F44119945EA0E
:1020C0000A048EEA060E8EEA010E04EA0206099C54
:1020D0004FEAFE7ECDF848E0A6464FEAFC7CCDF8FC
:1020E00000C0009905EA0A090144089C0B4446EA2D
:1020F00009011944129B8EEA040B039C1E18059BD0
:102100008BEA040B8BEA030B0A9B07EBF5679C46F3
:102110004FEAB505109B47EA050E07EA05040EEAEB
:102120000A0E8CEA03084EEA04040D9B3244224452
:10213000009C88EA030601EBF76166404FEAB707A7
:1021400041EA07034FEAF67603EA050433460B9E9D
:102150004FEAFB7ECDF818E0B64602EBF168069A2E
:10216000099E02EB000901EA0702CA4444EA020997
:102170000F9C8EEA060B09938BEA040B0C9C129EB3
:10218000A6460A9C8BEA060BD1448EEA040A4FEA63
:10219000FB7E7646B6464FEAB10148EA010203EB00
:1021A000000C3A4008EA01031343049A09EBF8696A
:1021B0008AEA020A069A4FEAB808654449EA08041E
:1021C0001D448AEA020A05EBF96C09EA08034FEAA2
:1021D000B90504EA010286444FEAFA79CDF8409045
:1021E000019C0A9677440B9E42EA030EBE44109F60
:1021F00084EA0609119E3B18099F89EA06094CEA00
:102200000502029E89EA07090C9F0CEA050402EA0E
:10221000080286EA070B2243059F19448B180A9986
:102220000EEBFC6E4FEABC068BEA07044FEAF97C22
:10223000CDF81CC04C40079A4FEAF4710891019CFC
:102240004EEA060703990EEA060C02442F40424468
:10225000614047EA0C07009C1744109A61405140C6
:102260000D9A089C9446029A03EBFE634FEAF171C3
:102270004FEABE0E43EA0E0804448CEA020B0A46FB
:10228000129903EA0E0A254408EA0608079C07EBA0
:10229000F36748EA0A084FEAB3038BEA010B47EAFF
:1022A000030C8BEA040BA8440F9D0CEA0E014FEAC5
:1022B000FB7CCDF804C0AC46039D14180B9207EAD2
:1022C000030226448CEA050541EA020C0699B4444F
:1022D000019E089C08EBF7684D404FEAB70748EAB3
:1022E000070A0644654008EA0701B6440AEA030AF9
:1022F0004FEAF5764AEA010A31460D9A049C0B9E94
:102300005440099A0CEBF86C84EA020B4FEAB808C7
:102310008BEA060B4CEA0802F2444FEAFB7ECDF84A
:1023200008E00F9C0CEA0805119E3A400C912A43E4
:102330000144029D86EA040E19440A9E0AEBFC6AD7
:102340000A444FEABC0C2918019D4AEA0C038EEAA4
:10235000060E0AEA0C04049E03EA080302E000BF2A
:10236000DCBC1B8F8EEA050E059D0F442343109C99
:1023700085EA060B3B440C9F02EBFA624FEAFE7EB5
:102380004FEABA0A8BEA040B4FEAB20603EBF26398
:10239000714602EA0A0542EA0A098BEA070B009A2B
:1023A0004FEAFB7E774696460C18119A09EA0C090B
:1023B000A04449EA0509079C0D910F978EEA020196
:1023C000C14407EB0008029F43EA06026140129DE8
:1023D00003EA060E02EA0A027940059FC44442EA73
:1023E0000E084FEAF17208996F4079400D9F09EB92
:1023F000F36903924FEAB303009A7940069F49EAD2
:1024000003044FEAF17187EA020E0091039A04EA8D
:1024100006070B99099CE044A346944609EA030287
:1024200047EA02040F9A8EEA010E8EEA020E8BEA48
:102430000501019A009D51402A180592039A4FEA1E
:10244000FE7E51400A9ACDF810E09646069A08EBB7
:10245000F9684FEAB90948EA09078EEA020B059ABA
:1024600008EA09051F4084442F43324400F16D50AF
:102470003A4400F5E020049F00F2FA40E2444FEABB
:10248000F176059639180C9E544404EBF864009FCD
:102490004FEAB8081944059B109D88EA090C8BEA9D
:1024A000060B099E4FEAB40E8BEA070B02EBF467AA
:1024B0008CEA04021C18029B6E405E40079B4FEAA8
:1024C000FB7CCDF818C09C468EEA080A0A9B4C4457
:1024D0008AEA070A8CEA030BA24401EB020C069C71
:1024E0000D9A049B8BEA020B0CEBF762A4465E404C
:1024F0004FEAF6760996059E4FEAB70181EA0E0487
:1025000084448BEA060B089EE04484EA020C0F9C8C
:102510004FEAB2076E400AEBF265069A66405640F3
:102520000B9AC44490464FEAFB794FEAB503CDF8C5
:1025300028901093099C87EA0103079A83EA050A09
:10254000109B044488EA02090A9A0CEBF56C83EAB2
:10255000070504EB0E034FEAF67402EB000B22466C
:10256000534403EBFC634FEABC0A85EA0C0594462E
:10257000039C8B440999089E89EA0409019C89EA15
:102580000109009974400A9E4C40109907927440CA
:102590000B9A0C9E8AEA010E844486EA02018EEAB6
:1025A00003060CEB070E4FEAF4770897049F019A95
:1025B0007940079F4FEAF9797940029F4FEAF1711C
:1025C000BC4601918CEA020C0D99109A09EB0008A7
:1025D000424488465D4405EBF365089F4FEAB30328
:1025E0004FEAB50483EA0A0BB6440EEBF56E0C997C
:1025F00084EA030607448BEA050B059DBA4486EA84
:102600000E07069E8CEA050C88EA01057540019EBE
:1026100002EB0B0832180C92089A8CEA090C554010
:102620000F9A4FEABE0108EBFE684FEAFC7ECDF838
:102630002CE09646029A4FEAF5758EEA020B029557
:102640000C9A099D57448BEA050B0B9D134405EB2F
:10265000000A019D0D9A8BEA050B039D81EA040691
:1026600085EA020EA244029A0A9C07EBF86786EA02
:1026700008064FEAB80815181E440F9A88EA0103A5
:102680008EEA040E009C06EBF7664FEAB70C4FEAA1
:10269000FB7B5F40CDF830B084EA020B0AEB070207
:1026A0000B9F8CEA0803294473408EEA070E079FAC
:1026B0000C9C0B4402998BEA07074F40A3460499F0
:1026C000039C4FEAB60A6140059C81EA0901A146D4
:1026D00002EBF6628AEA0C0603EBF26556404FEA1B
:1026E000B20282EA0A0303930C9B83445940039B82
:1026F0004FEAFE7E009CD8446B400EEB000B00932B
:10270000DC44089B4FEAF17B069989EA04045C40AB
:102710000B4604994FEAF7775940009B07EB0009F5
:102720006344D1449A46464406EBF566019B4FEA62
:10273000B50888EA02054FEAB60C7540594084EAAC
:102740000E040AEBF6630BEB000E8CEA0806A944B4
:102750004F407244099986EA030E059E09EBF3691E
:102760004FEAF4744FEAB303254671400B9C83EAA9
:102770000C0672444FEAB90A02EBF96286EA0909CB
:102780000A9E614081EA0B01B346069E4FEAF77745
:1027900000958BEA060B029C079E07EB000EF444A3
:1027A000B6460544A8448AEA03055540099EAC4450
:1027B0000C9DC1448EEA06064FEAB20800EBF171A7
:1027C00009EBF2628BEA040B88EA0A09009C6E406E
:1027D0000E9D0CEBF26C0B4489EA02014FEABC0E31
:1027E0004FEAB20205448BEA04040B447E4082EABD
:1027F000080903EBFC6305EBF6768EEA020100EBB9
:10280000F4745940544489EA0C0CB0448844149E32
:102810001599644404EBF364A01901EBB303179E0C
:102820001399169D714408EBF464324428656B6576
:10283000EC64A965EA6519B0BDE8F08F034670B491
:102840000749084E084D094C094A0020DE641D6501
:102850005C659965DA6518605860986070BC70476F
:10286000765432100123456789ABCDEFFEDCBA9870
:10287000F0E1D2C32DE9F047044600F10C06904682
:10288000CAB1894600F14805002720684946C0F1D1
:10289000400AC24528BFC2463044524600F00CFCF4
:1028A0002368CAEB08085344402BD144236005D069
:1028B000B8F1000FE9D10020BDE8F08704F108006D
:1028C00050F8041F01F0FF231A0A01F0FF1342EA37
:1028D00003234FEA3343A8420360F1D12046FEF7B9
:1028E000E3FF626802F140039A42636002D9A36881
:1028F0000133A3602760B8F1000FC6D1DBE700BF4A
:102900002DE9F8430546036840680F46C218904217
:102910006A6005F10C0902D9AA680132AA60591C43
:102920008022296009F803202B68382B5AD8C3F17C
:10293000380205F1080805F14806444609EB030092
:102940000021FDF727FD6B68AA68590F01EBC20251
:10295000DB006B60AA6054F8041F01F0FF231A0A21
:1029600001F0FF1342EA03234FEA3343B4422360EA
:10297000F1D1D8F800206B6828466A64AB64FEF792
:1029800093FF05F14C0605F15C0054F8041F01F0BB
:10299000FF231A0A01F0FF1342EA03234FEA3343ED
:1029A00084422360F1D132687068B168F36878605E
:1029B000B960FB603A603269DFF87CC0DFF87CE028
:1029C0001A4E1B4C1B493A6100231846C5F84CC0EF
:1029D000C5F850E06E65AC65E9652B606B60AB6077
:1029E000BDE8F883A84609EB0300C3F140020021CB
:1029F000FDF7D0FC402348F8083B404605F1480667
:102A000050F8041F01F0FF231A0A01F0FF1342EAF5
:102A100003234FEA3343B0420360F1D12846FEF767
:102A200043FF002213462A60382286E7FEDCBA986C
:102A300076543210F0E1D2C30123456789ABCDEF64
:102A4000014B1868704700BF38050020014900F0AD
:102A500085B800BFF55800082DE9F04F0746354806
:102A60007D68002407F53B7204230321F863C7F84F
:102A7000E412C7F8E822C7F8E04283B02C606C602B
:102A8000AC606C66EC812C616C61AC61AB81214601
:102A900005F15C000822FDF77DFCDFF89CB0BE6804
:102AA000DFF898A0DFF89890DFF8988001230922DA
:102AB000C5F820B0C5F824A0C5F82890C5F82C802A
:102AC000ED612146F381B28106F15C0034607460EF
:102AD000B460746634617461B46108220193FDF7D7
:102AE00059FCFD6812200222F661C6F820B0C6F833
:102AF00024A0C6F82890C6F82C802146A881EA8137
:102B00002C606C60AC606C662C616C61AC6105F132
:102B10005C000822FDF73EFC019BED61C5F820B08A
:102B2000C5F824A0C5F82890C5F82C80BB6303B075
:102B3000BDE8F08F4D2A00086D3200089132000880
:102B4000C9320008E9320008836B03B17047FFF710
:102B500083BF00BF704700BF704700BF2DE9F84337
:102B600010F538761ED0884607464FF00009756884
:102B7000B468013D10D4A389013D012B08D9B4F9F3
:102B80000E30013304D038462146C04749EA0009D7
:102B90006B1C04F16804EED13668002EE7D148467C
:102BA000BDE8F883B1464846BDE8F8832DE9F04F0B
:102BB00001F10B05162D83B0064627D935F0070520
:102BC00000F1B680A94200F2B38000F0EBFAB5F54F
:102BD000FC7F22D2BC4FE80807EBC003DC689C42B4
:102BE00000F0BC816368E16823F0030323445A6862
:102BF000A56842F00102E96030468D605A6000F03D
:102C0000D3FA0834204603B0BDE8F08F102900F253
:102C10008F8000F0C7FA1025DCE7680A00F08F808B
:102C2000042800F24781A80938304100A64F07EB7D
:102C30008101CC68A14206D10CE0002A80F282809A
:102C4000E468A14206D0636823F003035A1B0F2AED
:102C5000F3DD013801309C493C6901F1080E7445EF
:102C600000F07181636823F003035A1B0F2A00F3FD
:102C70005781002AC1F814E0C1F810E066DAB3F514
:102C8000007F80F02D81DB0801EBC3084FEAA30C25
:102C90004A68012303FA0CF3D8F808C01343C4F8B8
:102CA00008C0C4F80C804B60C8F80840CCF80C4051
:102CB0008210012494409C4255D8234206D120F032
:102CC00003006400234200F10400FAD007EBC008BF
:102CD000C4468146DCF80C309C4507D135E100291B
:102CE00080F24581DB689C4500F02F815A6822F014
:102CF0000302511B0F29F2DD1C46DA6854F808CF95
:102D000045F0010941F001081D44C3F80490304624
:102D1000CCF80C20C2F808C07D613D61C5F80CE01C
:102D2000C5F808E0C5F80480695000F03DFA69E78D
:102D3000002420460C23336003B0BDE8F08F7E21D1
:102D40003F2073E723445A68E16851E723445A68F7
:102D5000304642F001025A60083400F025FA20465D
:102D600003B0BDE8F08FBC68636823F003084545F5
:102D700004D8C5EB08030F2B00F38C80534BDFF80E
:102D80005CA11A68DAF800302A44013304EB080B1E
:102D900000F0518102F580520F3222F47F6222F05E
:102DA0000F0211463046019200F04EFAB0F1FF3F9B
:102DB0008146019A00F04881834500F2EF80444B40
:102DC000CB4519681144196000F04381DAF800001E
:102DD000DFF808E101301BBFCBEB090B5944CEF8FB
:102DE0000090196019F0070100F00881C1F1080096
:102DF000C1F58051814408314A44C2F30B02C2EB51
:102E0000010A51463046019300F01EFA431C019B13
:102E100000F02D81C9EB0002524442F00102196812
:102E2000BC425144C7F808901960C9F80420DFF883
:102E3000A0A016D0B8F10F0F40F2EF806268A8F1A1
:102E40000C0323F0070302F00102E0184FF0050E17
:102E50001A430F2B6260C0F804E0C0F808E000F2EB
:102E60000A811C4BBC681A68914288BF19601A4BD2
:102E70001A689142626888BF196022F00302954285
:102E8000A2EB050301D80F2B04DC304600F08CF9CF
:102E90000024B7E645F0010243F0010325446260D7
:102EA0003046BD6008346B6000F07EF9204603B008
:102EB000BDE8F08F142869D9542800F29880280BB7
:102EC0006E304100B2E600BF44050020880A0020B1
:102ED0008C0A0020840A0020800A0020500900206B
:102EE0005A0A042A55D9142A00F2A7805B324FEA05
:102EF000420C07EB8C0CDCF80810DFF8B881614558
:102F00007FD04A6822F00302934202D289688C453E
:102F1000F7D1CA687B68E260A1609460CC60C7E6C4
:102F200045F0010742F001032544676030464D61DA
:102F30000D61C5F80CE0C5F808E06B60AA500834D4
:102F400000F032F95EE64B68B2E609F1010919F0CA
:102F5000030F0CF1080C7FF4BDAE2CE004F1080364
:102F60006469A34208BF02303FF475AE3AE61C46DE
:102F70001A445168DB6854F8085F41F00101516060
:102F80003046EB609D6000F00FF93BE65B3041009E
:102F90004CE69A0938324FEA420CAAE7BC42454B4C
:102FA0003FF40DAF9C68626822F0030267E7D8F82F
:102FB000008098457CD110F0030FA8F1080300F1C0
:102FC000FF30F4D17B6823EA04037B6064009C42F9
:102FD0003FF6C9AE002C3FF4C6AE234248467FF40C
:102FE00075AE6400234200F10400FAD06EE6B0F53D
:102FF000AA7F18D8E80B7730410017E64FF48051CC
:10300000FAE6D8F8043092104FF0010C0CFA02F2F4
:103010001343C8F804300A467DE70123C9F8043099
:103020004C4600222BE740F2545398421CD8A80C7F
:103030007C304100FAE51032B3E6542A23D81A0B4B
:103040006E324FEA420C54E7BC68626822F0030219
:1030500015E7CBF30B0000287FF4B8AE4244BB6801
:1030600042F001025A60FCE6FC217E20DEE50122EE
:103070004FF0000AD3E604F10801304602F084FD67
:10308000DAF80010EDE6B2F5AA7F04D8DA0B773251
:103090004FEA420C2DE740F254518A4204D89A0C70
:1030A0007C324FEA420C24E74FF0FC0C7E2220E7F2
:1030B0007B688BE744050020844641EA000313F057
:1030C000030349D1403A23D30B6803604B68436044
:1030D0008B688360CB68C3600B6903614B69436194
:1030E0008B698361CB69C3610B6A03624B6A43627C
:1030F0008B6A8362CB6AC3620B6B03634B6B436364
:103100008B6B8363CB6BC36340304031403ADBD27F
:1031100030320BD30B6803604B6843608B6883606D
:10312000CB68C36010301031103AF3D20C3205D3A3
:1031300051F8043B40F8043B043AF9D2043208D079
:10314000D2071CBF11F8013B00F8013B01D30B88EB
:1031500003806046704700BF082A13D38B07B1D0A5
:1031600010F00303AED0C3F10403D21ADB071CBF77
:1031700011F8013B00F8013BA4D331F8023B20F8E1
:10318000023B9FE7043AD9D3013A11F8013B00F81A
:10319000013BF9D20B7803704B7843708B788370C6
:1031A00060467047704700BF704700BF0FB410B54E
:1031B000074B82B004AC54F8042B1868234681688E
:1031C000019400F0C3F802B0BDE8104004B07047AD
:1031D00038050020F0B5054689B008460C4600F0D9
:1031E00087F8431C134F0393AB6B012604A90222FB
:1031F00004940590AC680697079601910292ABB1D2
:10320000A3899A0406D4626E43F4005322F4005258
:10321000A38162662846214601AA02F08DFD00289E
:1032200014BF4FF0FF300A2009B0F0BD2846FFF769
:103230008BFCE5E740850008024B01461868FFF764
:10324000C9BF00BF3805002038B5074C002305462C
:1032500008462360FDF738FB431C00D038BD2368C7
:10326000002BFBD02B6038BDB80A002010B50C46EF
:10327000B1F90E1003F02EFB002803DB236D03448D
:10328000236510BDA38923F48053A38110BD00BF23
:103290002DE9F0410C4689891D46CB0516460746A7
:1032A00006D5B4F90E100022022302F0E3FEA18934
:1032B00021F48051A1813846B4F90E1032462B46D4
:1032C000BDE8F04101F0A4BA10B50C46B1F90E10FA
:1032D00002F0D0FEA389421C0EBF23F4805343F4B6
:1032E00080532065A38110BDB1F90E1001F006BB1B
:1032F00020F0030110F00300C0F1000051F8043B7E
:1033000000F1040C4FEACC0C6FF000021CBF22FA53
:103310000CF213434FF0010C4CEA0C2C4CEA0C4C11
:10332000A3EB0C0222EA030212EACC1204BF51F80A
:10333000043B0430F4D0C2F1000102EA0102B2FA07
:1033400082F2C2F11F0200EBD20070472DE9F04F6C
:10335000BFB01C4689460892074602F087FE036804
:103360000C9418461593FFF7C3FF16901FB1BB6B63
:10337000002B00F0F480B9F80C2093B29D040AD41D
:10338000D9F8641042F4005321F40051A9F80C302C
:10339000C9F864109BB2180740F1AB80D9F810202F
:1033A000002A00F0A68003F01A030A2B00F0AD807B
:1033B00000231A460DF1B80C6446B84611931493D5
:1033C0001793099323932293CDF884C012921392FA
:1033D000089D2B78002B00F0C680252B02D1C2E07F
:1033E000252B03D015F8013F002BF9D1089BEE1ACD
:1033F0007EB1229B239A013308993244072B84E83B
:1034000042002392229300F393800834099B3344B3
:1034100009932B78002B00F0938000234FF0FF3AA4
:103420001A465646691C6D788DF867300A930693E4
:103430004B1CA5F12001582900F2C083DFE811F0F0
:103440005602BE03BE039902BE03BE03BE03BE0303
:10345000BE03BE03A0026402BE03F201F002BE037B
:103460006E027502750275027502750275027502AB
:1034700075027502BE03BE03BE03BE03BE03BE03D8
:10348000BE03BE03BE03BE0366032703BE032703BA
:10349000BE03BE03BE03BE035F03BE03BE030A0337
:1034A000BE03BE03BE03BE03BE03A803BE03BE032A
:1034B0007F03BE03BE03BE03BE03BE03BE03BE0343
:1034C000BE03BE03BE039403AE02270327032703F4
:1034D000CC02AE02BE03BE03D302BE03DD02F9017D
:1034E00084025D02BE030B02BE039500BE03BE0351
:1034F00030023846494601F09FF9A0B9B9F80C30BE
:1035000003F01A030A2B7FF453AFB9F90E30002BE6
:10351000FFF64EAF38464946089A234601F03AF97D
:103520003FB0BDE8F08F4FF0FF303FB0BDE8F08F07
:103530004046494621AA03F039FC40B92EAC65E764
:10354000239B23B14046494621AA03F02FFCB9F83A
:103550000C305A06E7D409983FB0BDE8F08F3846E2
:10356000FFF7F2FA07E7089D53E70893069BB24678
:103570009E0640F117830C9F073727F0070303F1DE
:103580000802D3E900670C92012300229446CDF88B
:103590003CA08DF86720BAF1000F03DB069A22F0F9
:1035A0008002069256EA070240F02A83BAF1000F21
:1035B00000F02884012B00F02B83022B00F075848F
:1035C0002EA9F20842EA4772F80806F007030746F8
:1035D0001646303356EA070201F8013DF1D1069A4A
:1035E0000E91D00700F113852EAB5B1A0B930B9A4B
:1035F00053469245B8BF1346079300231093BCF17E
:10360000000F02D0079B01330793069B13F00203C0
:103610000D9302D0079B02330793069B13F0840699
:1036200040F0EB820A9B079AC2EB030ABAF1000F43
:1036300040F3E382BAF1100F2399229AB44FC8BF26
:103640004FF0100B07DC1EE0AAF1100ABAF1100FC0
:1036500004F1080417DD01321031072A2391229268
:1036600084E88008F0DD4046494621AA03F09EFB2D
:1036700000287FF46CAFAAF1100ABAF1100F2EAC3B
:103680002399229AE7DC01320AEB010B072ACDF8D5
:103690008CB0229284E8800400F3A4829DF867C075
:1036A0000834BCF1000F0FD0229B0BF1010B01334A
:1036B0000DF167010122072BCDF88CB0229384E82D
:1036C000060000F3BD8308340D9B73B1229B0BF100
:1036D000020B01331AA90222072BCDF88CB02293DA
:1036E00084E8060000F3B8830834802E00F0FB82E3
:1036F0000F9B0B9AC2EB030ABAF1000F32DDBAF14D
:10370000100F229A834F22DD10265B4606E0AAF1B5
:10371000100ABAF1100F04F1080417DD013210335A
:10372000072A2393229227606660F0DD40464946CF
:1037300021AA03F03BFB00287FF409AFAAF1100A8D
:10374000BAF1100F2EAC239B229AE7DC9B46013284
:10375000D344072ACDF88CB0229284E8800400F389
:1037600063830834069BDB0500F16682229B0B997C
:1037700001330E9A8B44072BCDF88CB02260616028
:10378000229300F380830834069B59073AD50A9B9D
:10379000079A9D1A002D35DD102D229B5C4F1EDDF2
:1037A00010265A4604E0103D102D04F1080415DDE2
:1037B00001331032072B2392229327606660F2DDDB
:1037C0004046494621AA03F0F1FA00287FF4BFAE33
:1037D000103D102D2EAC239A229BE9DC9346013339
:1037E000AB44072BCDF88CB022932760656009DDD0
:1037F0004046494621AA03F0D9FA00287FF4A7AE33
:10380000DDF88CB0099B079A0A998A42ACBF9B18D5
:103810005B180993BBF1000F40F0EA82002322936A
:103820002EACD5E51946069840F0040006901D78A8
:10383000FEE50893069BB24613F0200300F01581C5
:103840000C9F073727F0070303F10802D3E900674D
:103850000C92002399E60C9A089313684FF0000B22
:103860000E938DF867B0171D002B00F07E86002E9A
:103870000E98C0F230865946324602F07FFC00288E
:1038800000F0AF860E9BCDF83CB0C31A0B930C979B
:1038900023EAE3730793CDF840B09DF867C0AEE626
:1038A00008931D4BB2461493069B8DF8672099062A
:1038B00040F14F810C9F073727F0070303F10802FF
:1038C0000C92D3E90067069BDB0740F1078356EAB9
:1038D000070300F00383069A302342F002028DF8BA
:1038E00068308DF86950069202234EE6002A40F0B7
:1038F00031851D78194620229AE5069941F020016C
:1039000006911D78194693E51D7819462B228FE5FF
:10391000988500084485000878850008069941F0DC
:10392000800106911D78194682E5A5F1300000213D
:1039300013F8015B01EB810100EB4101A5F13000BF
:103940000928F5D90A9174E50C9A06990893302351
:103950008DF86830B44BB2467825166841F0020104
:103960000432149306910C9200278DF869500223BB
:103970000BE6069941F0010106911D78194657E5BD
:103980000C9D296808460A912946002801F1040186
:10399000C0F26F850C911D78194649E50893069B86
:1039A000B24699068DF8672040F1BC800C9F07371E
:1039B00027F00707D7E9002307F1080116461F463D
:1039C0000C91002A73F10003C0F2E6839DF867C0F2
:1039D000CDF83CA00123DEE5069941F040010691B7
:1039E0001D78194624E51D7806996C2D00F03A855E
:1039F00041F01001069119461AE50893069B8DF8CF
:103A000067209A0640F175840C9A134604330C9390
:103A1000099B1168DF171A463B46C1E90023D7E42A
:103A20001D78591C2A2D00F09E86A5F1300009282A
:103A30000B464FF000063FF6FCAC13F8015B06EBBB
:103A4000860600EB4606A5F130000928F5D946EABE
:103A5000E676EEE40893069BB24643F01003069325
:103A6000069B13F020037FF4EBAE069A12F01002CF
:103A700040F08182069B13F0400300F07C820C9999
:103A800013460A4604320E8800270C927DE50893FF
:103A9000069B0C9F1B07B2468DF86720B34607F1C3
:103AA000070740F10B8427F0070303F108020C928B
:103AB0001A685B68129213931399129803F00EF927
:103AC00001281399129840F075830022002303F017
:103AD000EFFE002840F06B859DF867C0534A544BB9
:103AE000069E472DD8BF1A460321002026F08006E7
:103AF00007910F9006960E920B9110907FE5069914
:103B000041F0080106911D78194691E40893069B3F
:103B1000B24643F010030693069B8DF86720990682
:103B20003FF544AF069BDA0640F1D3830C9A134667
:103B30001E680433F7170C9332463B4641E708935F
:103B40003C4BB2461493069B8DF8672099063FF5CF
:103B5000B1AE069BDA0640F1F1830C9A00271346BA
:103B6000043316680C93AEE60C98089302680023A1
:103B70008DF89020024601219C4604328DF8673072
:103B80000F93109324AB07910C920B910E933CE58D
:103B90000893069BB24643F010030693069B9E06CD
:103BA0003FF5E9AC069BD80640F1BA830C9A134660
:103BB00004321E68002701230C92E6E408938DF876
:103BC0006720002D3FF4BCAC002301229C468DF8F9
:103BD00067300F93109324AB07928DF890500B929F
:103BE0000E9312E54046494621AA03F0DFF800286B
:103BF0007FF4ADAC9DF867C02EACDDF88CB050E51D
:103C0000012B7FF4DAAC002F08BF0A2E80F0E4818C
:103C10000DF1F80B30360BF8416D2EABCBEB0303F7
:103C20000B93CDF838B0E2E4788500085885000899
:103C30005485000864850008652D40F38A80129839
:103C400013990022002303F029FE002800F0498187
:103C5000229BBA4901330BF1010B0122072BCDF84E
:103C60008CB0229384E8060000F3858308341B9B04
:103C7000119A934203DB069BDF077FF585AD229BFC
:103C800016990133159A8B44072BCDF88CB022601E
:103C90006160229300F3F4830834119B5D1E002DB4
:103CA0007FF772AD102D229BA54F40F3E2801026C6
:103CB0005A4604E00834103D102D40F3D9800133FA
:103CC0001032072B2392229327606660F2DD404674
:103CD000494621AA03F06AF800287FF438AC2EACDC
:103CE000239A229BE7E70A9B079A9E1A002E7FF7EA
:103CF000FFAC102E229A924F1FDD4FF0100A5B4648
:103D000004E0103E102E04F1080415DD01321033DA
:103D1000072A2393229284E88004F2DD4046494634
:103D200021AA03F043F800287FF411AC103E102EB6
:103D30002EAC239B229AE9DC9B460132B344072A2E
:103D4000CDF88CB022922760666000F318820834A8
:103D5000CEE4119B229D012B0BF1010605F101051B
:103D600040F3C7810E9A0123072D239622602295E6
:103D7000636000F3D7810834169A0135159B164409
:103D8000072D239622952360626000F3D7810834C3
:103D9000002312981399002203F080FD119B002844
:103DA00040F0F1800E9A013B013501321E44072D8F
:103DB000226022952396636000F3D5810834179A18
:103DC000013506EB020B1DAB072DCDF88CB022950B
:103DD000626023607FF7D7AC4046494621AA02F0D3
:103DE000E5FF00287FF4B3AB2EACDDF88CB0CBE45C
:103DF0004046494621AA02F0D9FF00283FF40EAD03
:103E0000FFF7A5BB002B4AD1069BDA0747D50DF17A
:103E1000F80B30230BF8413D2EABCBEB03030B9398
:103E2000CDF838B0FFF7E3BB4046494621AA02F07F
:103E3000BDFF00287FF48BAB2EACDDF88CB091E495
:103E40004046494621AA02F0B1FF00287FF47FAB2B
:103E50002EACDDF88CB037E44046494621AA02F08A
:103E6000A5FF00287FF473AB2EACDDF88CB03CE4EA
:103E700093460133AB44072BCDF88CB022932760D7
:103E800065607FF780AC4046494621AA02F08EFF6C
:103E900000287FF45CABDDF88CB02EAC74E42EAB64
:103EA000CDF82CA00E93FFF7A2BB14980DF1B80B20
:103EB000330943EA0773390906F00F020F461E461D
:103EC000835C0BF8013D56EA0703F1D15A462EAB4D
:103ED0009B1ACDF838B00B93FFF789BB0223FFF78D
:103EE00054BB1B9D002D40F35282119A109913462A
:103EF0008A42A8BF0B461D460E99002D01EB020A0F
:103F00000CDD0A46229BAB440133072BCDF88CB065
:103F100084E82400229300F305830834109B002DCD
:103F2000A8BF5B1B002B1D4640F38B80102D229BEE
:103F3000034F40F3148210265A4608E09485000887
:103F4000448500080834103D102D40F307820133EA
:103F50001032072B2392229327606660F2DD4046E1
:103F6000494621AA02F022FF00287FF4F0AA2EACD5
:103F7000239A229BE7E70C9900270A4604320E6831
:103F80000C92FFF702BB03F1FF3ABAF1000F7FF783
:103F900016AFBAF1100F864FC8BF4FF0100B07DCF9
:103FA000D8E00834AAF1100ABAF1100F40F3D28019
:103FB00001351036072D2396229584E88008F0DD20
:103FC0004046494621AA02F0F1FE00287FF4BFAA2C
:103FD0002EAC239E229DE5E70DF1B80BCDF81CC059
:103FE000304639460A22002303F0B2FC3032304614
:103FF00039460BF8012D00230A2203F0A9FC0646DE
:104000000F4656EA0703EBD1DDF81CC05EE7302B04
:1040100000F042820E9B2EA8013B1A460E93821A94
:1040200030230B9201F8013CFFF7E1BA40464946C4
:1040300021AA02F0BBFE00287FF489AADDF88CB02B
:104040002EAC0E9A10991B9B0A441646119A934265
:1040500040DB069AD5073DD4119AC6EB0A05D31A60
:104060009D42A8BF1D46002D2F460BDD229AAB4472
:104070000132072ACDF88CB084E8C000229200F308
:1040800087820834002FB4BF1D46DD1B002D7FF74B
:104090007BAB102D229B464F7FF7EBAE10265A4686
:1040A00004E00834103D102D7FF7E2AE01331032EA
:1040B000072B2392229327606660F2DD4046494633
:1040C00021AA02F073FE00287FF441AA2EAC239AA5
:1040D000229BE7E7229A1698013215998344072A12
:1040E000CDF88CB021606060229200F331820834F8
:1040F000B2E7069BD8073FF535AE0E9A0123072D90
:1041000023962260229563607FF758AE4046494669
:1041100021AA02F04BFE00287FF419AA2EAC239EA0
:10412000229D4CE64046494621AA02F03FFE002867
:104130007FF40DAA2EAC239E229D1DE640464946E3
:1041400021AA02F033FE00287FF401AA2EAC239EA0
:10415000229D1DE601355644072D2396229584E8BD
:1041600080047FF72BAE4046494621AA02F01EFE8E
:1041700000287FF4ECA9239E229D2EAC1FE640462A
:10418000494621AA02F012FE00287FF4E0A92EACD5
:10419000DDF88CB0FFF7ACBA4FF02D0C764267EB30
:1041A00047078DF867C0CDF83CA00123FFF7F3B9AE
:1041B0004485000802F092FD002800F02D8125F0D2
:1041C0002003BAF1FF3F0B9300F07882472B05D113
:1041D000BAF1000F14BFD3464FF0010B069B43F416
:1041E00080730F93139BB3F1000A129B0793B7BF21
:1041F0005346002303F1004A2D23662D0D9300F052
:104200007381462D00F070810B9B0220452B14BF5B
:104210005F460BF101071BA98DE8810002911CA8E4
:104220001FA90390079A53460491404600F010FCE2
:10423000672D0E9002D0472D40F06681069BDB076C
:1042400040F159820E9BDE19079851460022002347
:1042500003F024FB002840F0C2811F9B9E4206D938
:1042600030215A1C1F9219701F9B9E42F9D80E9A3A
:104270009B1A11930B9B472B1B9B00F0A981652D6B
:1042800040F3BB81662D109300F02882119B109A99
:10429000934200F31682069BD90700F13C8222EA82
:1042A000E2730B920D9A002A40F0878107930F9BCF
:1042B0009DF867C006930F92FFF7A1B927F0070793
:1042C0003B6812937B68139307F108030C93FFF785
:1042D000F3BB069B0C9A13F0400F13463FF428AC37
:1042E000B2F900600433F7170C9332463B46FFF7F0
:1042F00068BB069BDB060BD4069B5F0608D50C9AB1
:10430000136804320C92BDF824201A80FFF760B8BD
:104310000C9A136804320C92099A1A60FFF758B885
:10432000069B0C9A13F0400F13463FF441AC1688DD
:104330000432002701230C92FFF727B9069B0C9A41
:1043400013F0400F13467AD00433168800270C93DD
:10435000FFF7B9BA19461D78FFF76AB893460133DB
:10436000AB44072BCDF88CB02293276065603FF7F4
:104370005DAE083465E64046494621AA02F016FDC6
:1043800000287FF4E4A82EACDDF88CB06FE4229B0B
:10439000B04901330BF1010B0122072BCDF88CB092
:1043A000229384E8060050DC08342DB9119B1BB918
:1043B000069BDE077FF5E8A9229B16990133159825
:1043C0000BEB0102072B239284E80300229300F3F6
:1043D000688108346D42002D6FDD102D9E4FC8BFDF
:1043E000102605DCAAE00834103D102D40F3A6800D
:1043F00001331032072B2392229327606660F2DD8F
:104400004046494621AA02F0D1FC00287FF49FA82B
:104410002EAC239A229BE7E7904A914B069E472DAC
:10442000D8BF1A46032126F080060F900791069602
:1044300010900E920B919DF867C0FFF7E0B804331F
:10444000166800270C93FFF73EBA4046494621AA5A
:1044500002F0ACFC00287FF47AA82EAC1B9DDDF89E
:104460008CB0A2E741F0200106915D78591CFEF75F
:10447000DFBF0A980C9140420A901946FFF7D3B962
:104480004046494621AA02F091FC00287FF45FA82B
:104490002EACDDF88CB000E40E9A2EAB9B1A0B9379
:1044A000FFF7A5B84046494621AA02F07FFC002844
:1044B0007FF44DA8239A229B2EAC1198013302EB76
:1044C000000B0E9A072BCDF88CB02293226060600F
:1044D0007FF759A9D7E4CDF83CB0FEF709FF0C9758
:1044E0000B900346FFF7D4B903201BA98DE8010800
:1044F00002911CA81FA90390079A534604914046B5
:1045000000F0A6FA5F460E900E9BDE190B9B462B21
:104510007FF49AAE0E9B1B78302B00F0EE801B9F31
:104520003E4491E64046494621AA02F03FFC00285D
:104530007FF40DA82EACDDF88CB0EFE401332A44F3
:10454000072B2392229327606560ABDC0834B4E725
:104550004046494621AA02F029FC00287EF4F7AF24
:104560002EAC1B9BDDF88CB076E53346062E28BFBB
:1045700006230B9323EAE373DDF838C00793394B26
:104580000C97CDF83CC0CDF840C00E93FFF737B87C
:104590004046494621AA02F009FC00287EF4D7AF24
:1045A0001B9B119ADDF88CB0D31A2EAC6AE52D2333
:1045B0009C468DF86730FFF791BA07930F9B4FF039
:1045C0002D0C069300238DF867C00F93FFF71AB8E0
:1045D000DF1C11DB9B450FDB1093672556E6334646
:1045E00045E626EAE6730F900C9710909DF867C099
:1045F00007930B96FFF703B8023D013B002B1B937B
:10460000BABF5B422D222B22092B8DF874508DF8F6
:10461000752040F386800DF183000146124A82FB2B
:104620000326DA17C2EBA60606EB8602A3EB4202CC
:104630003032092E334601F8012DEFDC0A463033C3
:10464000DEB202F8016D904240F2A0800DF17602D8
:104650000B460DE09485000844850008608500083D
:104660005C8500088C8500086766666613F8016B38
:10467000834202F8016BF9D121AB5B1A0DF176028E
:1046800013441DAA9B1A119A1793012A13440B93E2
:1046900057DD0B9B002201330B93109223EAE37347
:1046A00000E64046494621AA02F080FB00287EF43D
:1046B0004EAF2EAC1B9D239A229B8BE64FF0060B30
:1046C0008CE5109B002BD8BFC3F10206119BC8BF1D
:1046D0000126F3180B9323EAE373E3E5002B39DD9E
:1046E000BBF1000F25D1069BDE0722D4109A22EAE7
:1046F000E2730B92D6E51F9BB9E50798514600225D
:10470000002303F0CBF800287FF409AFC7F10107BD
:104710001B973E4498E5109B01330B9323EAE37308
:10472000C0E5303330228DF877308DF876201EAB1F
:10473000A7E7109B0BF1010633440B9323EAE373C5
:10474000B0E5069B13F00103A3D110930B9B23EA62
:10475000E373A7E5BBF1000F12D1069BD8070FD476
:1047600001230B939EE50C9D28462E680430002EF5
:104770005D780C90BEF65CAE4FF0FF36FEF758BE8B
:104780000BF102030B9323EAE3738BE50DF1760340
:1047900077E700BF2DE9F04588464F6EADF26C4DCE
:1047A0001997D8F81C70B1F80CE0B1F80EA0079773
:1047B000D8F824701AAC4FF480652EF0020E002653
:1047C00069460094049402950595ADF80CE0ADF8A7
:1047D0000EA0099706960546FEF7B8FD041E07DBF6
:1047E0002846694601F06CF9B04218BF4FF0FF341B
:1047F000BDF80C305B0605D5B8F80C3043F040032B
:10480000A8F80C3020460DF26C4DBDE8F08500BFD5
:1048100070B5084C06460025084611461A46256024
:10482000FBF7F2FF431C00D070BD2368002BFBD0C8
:10483000336070BDB80A002038B52F4B05461868A4
:104840000C4610B1836B002B36D0A28993B21807A7
:104850000CD52069A8B113F001021ED063690022B3
:104860005B42A361A260F0B1002038BDD9063AD501
:10487000580724D4206942F00803A3819BB2002882
:10488000E9D103F42072B2F5007FE4D02846214636
:1048900001F004FCA3892069DDE7990758BF62692C
:1048A000A2600028E0D1A3891A06DED543F04003B8
:1048B000A3814FF0FF3038BDFEF746F9C5E7216B05
:1048C00049B104F14003994203D0284601F05CF954
:1048D000A28900232363206922F02402002392B2DC
:1048E00084E80900C7E742F0400209232B604FF03B
:1048F000FF30A28138BD00BF3805002038B5074C15
:104900000023054608462360FBF7AAFF431C00D09E
:1049100038BD2368002BFBD02B6038BDB80A0020BF
:104920002DE9F04F03690F6983B09F4200F38B803C
:10493000013F01F1140600F1140A56F827305AF825
:1049400027200133B2FBF3F8BB00009306EB030909
:1049500053440193B8F1000F3DD000231C46B446E8
:10496000D6461A465CF804BBDEF800501FFA8BF3FB
:104970004FEA1B4B03FB08220BFB08F303EB12432C
:1049800092B2A41A1FFA83FBAAB22244CBEB1544BD
:1049900004EB224492B242EA0442E1454EF8042B71
:1049A0004FEA24444FEA1342DCD2009B5AF803300A
:1049B0008BB9019C231F9A450CD254F8043C4BB987
:1049C000A4F1080302E01A68043B1AB99A4507F1FA
:1049D000FF37F8D30761044601F092FE00282EDB72
:1049E00000235546194608F1010856F8042B2B6898
:1049F00090B2081A120C99B2C2EB1343421803EB9F
:104A0000224392B242EA0342B14545F8042B4FEAF1
:104A10002341EAD25AF827200AEB87037AB91A1FF2
:104A200092450BD253F8042C42B9083B02E01A68B5
:104A3000043B1AB99A4507F1FF37F8D3276140467E
:104A400003B0BDE8F08F002003B0BDE8F08F00BFD9
:104A50002DE9F04F016C99B00446CDE90223259D64
:104A600041B1426C012393408B604A6001F05CFCD1
:104A700000232364DDE90223002B994636DB002363
:104A80002B60A54B1A4609EA0303934217D0DDE9D0
:104A90000267002200233046394602F0FFFE8046BE
:104AA00000282BD0249A01231360269B002B00F0B2
:104AB000CB809A481860013819B0BDE8F08F42F2F7
:104AC0000F73249A1360029B002B00F0A680944879
:104AD000269B002BF0D0C378002B00F0B78000F1AC
:104AE0000803269A136019B0BDE8F08F039A0123DA
:104AF00022F000492B60CDF80C90C2E717AA16AB44
:104B00008DE80C00204632463B4601F08FFE5FEAFE
:104B10001955834640F08A80DDF85880179D6FF460
:104B2000826345449D42C0F295827E4A05F212435B
:104B3000521B09FA02F9029A22FA03F049EA00002C
:104B400002F0CEFB0123013DA1F1F8711293002286
:104B5000754B02F087FA6AA3D3E9002302F036FC12
:104B600069A3D3E9002302F07FFA064628460F46E0
:104B700002F0C6FB66A3D3E9002302F027FC02463D
:104B80000B463046394602F06FFA06460F4602F0F1
:104B9000B7FE3946059000223046002302F088FE19
:104BA000002840F0A481059B162B00F29D81DDE9D1
:104BB000022305985D4901EBC001D1E9000102F033
:104BC00095FE002800F05082059B013B05930023D1
:104BD0000C93C5EB0805B5F1010A00F19F81002394
:104BE0000693059B002BC0F290819A440B930023FF
:104BF0000993229B092B2BD8052B40F37786043B86
:104C000022930025229B023B032B00F25586DFE80E
:104C100013F0CF03C103B0026A06414B444AC9F303
:104C20001300002814BF1846104651E7C7F31303BA
:104C300043F07F51CDF848803046A5F2FF3541F46E
:104C40004011DDF8588082E73A4835E7C31C48E751
:104C5000002161642046229101F03EFB4FF0FF33BA
:104C6000229A07930D9301230890239220640A93BC
:104C7000179B002BC0F2D080059A0E2A00F3CC803F
:104C80002A4B03EBC203D3E90089239B002BC0F21C
:104C90009283DDE9026742464B463046394602F0D0
:104CA000BFFC02F02DFE824602F02AFB42464B4634
:104CB00002F08CFB02460B463046394602F0D2F930
:104CC000079E089F0AF13005012E3D7002460B46F3
:104CD00007F1010562D00022174B02F077FB00229A
:104CE000002306460F4602F0D9FD002840F08180DF
:104CF000CDF808B0DDF820A0DDF81CB006942AE05D
:104D000061436F63A787D23FB3C8608B288AC63FD1
:104D1000FB799F501344D33F0000F07F9585000836
:104D2000B48500080EFCFFFF0000F83FC8850008AE
:104D3000A885000894850008000024400022C84B84
:104D400002F044FB0022002306460F4602F0A6FDB7
:104D5000002840F0E08342464B463046394602F098
:104D60005FFC02F0CDFD044602F0CAFA42464B4613
:104D700002F02CFB02460B463046394602F072F92F
:104D800004F1300605F8016BCAEB0506B34502468F
:104D90000B46D3D1A246DDF808B0069C1046194652
:104DA00002F062F906460F464046494632463B4607
:104DB00002F07EFD48B94046494632463B4602F085
:104DC0006DFDB0B11AF0010F13D015F8018C6B1EF8
:104DD000089904E08B4200F0458413F8018DB8F186
:104DE000390F03F101051A46F4D008F10103DBB2D3
:104DF00013702046594601F097FA0022059B2A704D
:104E0000249A01331360269B002B00F04A830898F4
:104E10001D6019B0BDE8F08F0A9A002A00F0848066
:104E2000229A012A40F30983079B5F1E099BBB421C
:104E3000C0F2AF83DF1B079B002BC0F2A584069D49
:104E4000079B069A20461A44012106929A4401F0D3
:104E500005FB064665B1BAF1000F09DDAA455346C8
:104E6000A8BF2B46069AED1AD21A0692C3EB0A0A7D
:104E7000099B002B1ADD0A9B002B00F08383002F77
:104E800010DD31463A46204601F092FB06465A466E
:104E90003146204601F0ECFA80465946204601F0A2
:104EA00043FAC346099BDA1B40F0A7822046012142
:104EB00001F0D4FA0B9B8046002B39DD01461A46DF
:104EC000204601F075FB229B8046012B40F39B821C
:104ED0004FF00009D8F8103008EB8303186901F08F
:104EE0006FFAC0F120002DE001230C9371E60598C4
:104EF00002F006FA32463B4602F0D0FC00287FF46E
:104F000052AE059B013B05934DE6069A059BD21ACE
:104F10005B420993002306920B936AE6CAF10003F1
:104F200006934FF0000A5CE6099F069D0A9E91E7F2
:104F3000229B012B40F3B8824FF000090B9B002B02
:104F4000C8D10120504410F01F0000F08180C0F152
:104F50002003042B40F3C184C0F11C00069B0544D0
:104F6000034406938244069B002B05DD59461A46EE
:104F7000204601F06DFB8346BAF1000F05DD414686
:104F80005246204601F064FB80460C9B002B40F00B
:104F90006D82079B002B40F39B820A9B002B71D1F3
:104FA000DDF82090079F4D4604E05946204601F069
:104FB000C5F9834658464146FFF7B2FC303005F844
:104FC000010BC9EB0503BB424FF00A024FF000038F
:104FD000EBDB089B079A8446012AACBF9B18013380
:104FE0001D464FF0000A594601222046CDF808C060
:104FF00001F02EFB4146834601F082FB0028DDF8DC
:1050000008C040F3FC8215F8012C6B1E089904E0DF
:105010008B4200F0798213F8012D392A03F1010542
:10502000F6D001321A704146204601F07DF9002E7B
:105030003FF4DFAEBAF1000F05D0B24503D05146C0
:10504000204601F071F93146204601F06DF9D0E6B5
:105050001C2083E7034B029A5B1B02FA03F06FE507
:1050600000002440EEFBFFFF0C90B2E53146002328
:1050700020460A2201F062F90D9B0646002B40F300
:1050800015840793002D05DD31462A46204601F0A0
:10509000DFFA0646B9F1000F40F0EE82B146089AF9
:1050A000079B1746013BD3180993029B03F00103AA
:1050B0000A9341465846FFF733FC314605465846A9
:1050C00001F01EFB4A4682464146204601F03CFB69
:1050D000C268034605F1300C002A40F0BD81194634
:1050E0005846CDF81CC0069301F00AFB069B0290BF
:1050F0001946204601F018F9029ADDF81CC02AB9B9
:10510000229B1BB90A9B002B00F0B083BAF1000F61
:10511000C0F2578205D1229B1BB90A9B002B00F0DD
:105120005082002A00F3BC82099B07F1010A9F42CA
:1051300087F800C0554600F0BF8259460A22002376
:10514000204601F0FBF84E458346314620464FF09D
:105150000A024FF0000300F0798101F0EFF84946B0
:1051600006460A222046002301F0E8F85746814609
:105170009FE701230A93239B002B40F319821F46CC
:105180001E460D9307930021172F61640AD901224F
:1051900004235B0003F114008742114602F101026F
:1051A000F7D26164204601F097F80E2E0890206433
:1051B0003FF65EAD002D3FF45BADDDE902230599BE
:1051C000CDE90E23002940F32682BA4B01F00F02ED
:1051D0000D1103EBC203E906D3E9006740F1E18159
:1051E000DDE90E01B44B05F00F05D3E9082302F009
:1051F00017FACDE902014FF003088DB13046394668
:10520000DFF8B492EA0705D5D9E9002302F0DEF809
:1052100008F101086D1009F10809F3D106460F469F
:10522000DDE9020132463B4602F0FAF9CDE902011E
:105230000C9B43B1DDE902010022A04B02F038FBD8
:10524000002840F0B582404602F05AF8DDE902231A
:1052500002F0BCF89A4B002201F006FF079B0646BD
:10526000A1F15077002B00F06881059BDDF81CC090
:1052700013930A9B002B00F026828E4B002003EB39
:10528000CC0353E902238F49CDF850C002F0C8F98E
:1052900032463B4601F0E6FEDDE90267CDE910014A
:1052A0003946304602F02CFB054602F029F802464A
:1052B0000B463046394601F0D5FEDDE91023303586
:1052C0005FFA85F8089D064685F800800F4601358F
:1052D00002F0EEFA002840F0B98232463B46002048
:1052E000764901F0BFFE02460B46DDE9100102F0EF
:1052F000FDFA002840F0B382DDF850C0BCF1010F88
:1053000040F33A81089BCDF850A0CDF808B003EBEC
:105310000C09DDE910ABA0460FE032463B46002009
:10532000664901F09FFE52465B4602F0C1FA002832
:1053300040F090824D4500F01A81504659460022B7
:10534000614B02F043F800225F4B82468B463046A9
:10535000394602F03BF80F46064602F0D1FA044601
:1053600001F0CEFF02460B463046394601F07AFE88
:105370003034E4B205F8014B52465B4606460F4610
:1053800002F096FA0028C8D0139BDDF808B0444616
:1053900005932EE500230A93239B059A13440D934E
:1053A0000133002B079340F30A81079E3746EAE654
:1053B00000230A93DFE6079B002B3FF76AAC40F01F
:1053C000668240460022414B494601F0FFFFDDE97D
:1053D000022302F081FADDF81C804646002800F026
:1053E0008B80239B089DDB4305934146204600F0BC
:1053F0009BFF002E7FF427AEFBE45946204601F0C8
:10540000D7F8834652E5029B002B7FF461AD039BE6
:10541000C3F31303002B7FF48FAD039B23F00047EE
:105420003F0D3F05002F00F01E82069B0AF1010A86
:10543000013306934FF0010980E5129A002A00F02B
:10544000A98103F23343099F069DFAE400F076FF39
:105450005746064681462CE601462046CDF808C050
:1054600000F062FF0122DDF808C04FE658464146D1
:1054700001F046F90028BFF68CAD059F5946002380
:1054800020460A22013F059700F058FF0A9B8346F9
:10549000002B7FF4EBAD0D9B002B40F3FC810793B9
:1054A0007EE50898FFF708BB029B002B7FF444AD14
:1054B000ADE700BFC8850008A08600080000F03FE7
:1054C00000001C400000E03F0000244000001440A9
:1054D000229B022B7FF761AD079B002B81D14146B8
:1054E0000522204600F02AFF80465846414601F03A
:1054F00007F900287FF775AF059A08993123013223
:1055000005920B704D1C70E7059A3123013205920C
:10551000089A137087E5DDF808B0069C69E44046F8
:1055200001F0EEFEDDE9022301F050FF0022BE4B48
:1055300001F09AFD0646A1F15077DDE90201002253
:10554000BA4B01F08FFD32463B46CDE9020102F035
:10555000CDF98046002840F0B280DDE902013246F4
:1055600007F1004302F0A4F930B1464639E744465A
:10557000DDF850A0DDF808B0DDE90E23CDE9022307
:10558000FFF776BB5946099A204601F011F8834689
:105590008CE4099B0B9AFB1A1A4409970B9200277B
:1055A00049E4DDE90E234FF00208CDE9022324E6A9
:1055B000012623960D96079600216164F2E51E46AA
:1055C000FAE7002A15DD594601222046CDF808C029
:1055D00001F03EF84146834601F092F80028DDF8DC
:1055E00008C040F34D81BCF1390F00F009810CF186
:1055F000010CB24687F800C07D1C4E4613E504D16D
:105600001CF0010F01D0FEE4154615F8013C6A1E9E
:10561000302BF9D007E5059B5D42002D00F0C180DD
:10562000DDE90E01824B05F00F0203EBC203D3E963
:10563000002301F0CBFE2D11CDE9020100F03081F5
:105640007C4E4FF00208EB0705D5D6E9002301F0A8
:10565000BDFE08F101086D1006F10806F3D1CDE991
:105660000201E5E5059A302301320592089A13708C
:1056700031231370FFF7BDBB7168204600F02CFE8C
:105680000546336906F10C019A1C92000C30FDF7B7
:1056900013FD20462946012200F0DAFF8146FEE490
:1056A000BCF1390F00F0AC800CF1010CB24687F868
:1056B00000C07D1C4E46B6E4B2464E4693E44FF021
:1056C0000008464618E75A490CF1FF3301EBC301C5
:1056D0003246D1E9000114933B46CDF854C001F0A5
:1056E00075FEDDE90267CDE910013946304602F06A
:1056F00007F9054601F004FE02460B4630463946DE
:1057000001F0B0FCDDF854C0089A3035BCF1010F4F
:10571000157006460F4602F1010523D0089BCDF80F
:1057200008A063445E469A46AB460022424B01F015
:105730004DFE8946804602F0E3F8074601F0E0FDA1
:10574000303702460B464046494601F08BFC0BF8C9
:10575000017BD345E9D1B3460F460646149BDDF8DD
:1057600008A01D440022354BDDE9100101F07CFC4E
:1057700032463B4602F09CF8002848D0139B059324
:1057800015F8018CFFF723BB069B079A9D1A00238F
:10579000FFF757BB169B099FC3F13603069DFFF722
:1057A00050BBDDE90E234FF00208CDE902233FE5AF
:1057B000079B002B3FF4B3AE0D9D002D7FF7DCAEB1
:1057C000DDE9020100221C4B01F000FE06460F46F7
:1057D00008F10100CDE9026701F092FD02460B4697
:1057E0003046394601F0F2FD0F4B002201F03CFC3F
:1057F000059B0646013B1393A1F15077AC4638E573
:105800003922B2463A704E467D1CFFF7FEBBDDE9F9
:1058100010230020094901F025FC32463B4602F0E6
:1058200065F870B9A8E600BF00001C4000001440F5
:10583000C8850008A0860008000024400000E03F62
:10584000154615F8013C6A1E302BF9D0139B0593C1
:10585000FFF7CFBA4346A0461C46DDF808B0139BBD
:105860000593FFF7B4BAB946FFF768BBBCF1390F2F
:10587000C6D0BAF1000F7FF7BCAE05F1310CB8E627
:105880007FF4B7AE1CF0010F3FF4B3AEABE64FF0C0
:1058900000084646A5E5229B022B04DC0D9BFEE595
:1058A0004FF00208C4E40D9B079315E6229B022BE0
:1058B000F9DC0D9BFFF7E5BB002565642946204612
:1058C00000F00AFD4FF0FF3307930D93012308907A
:1058D000239520640A93FFF7CBB93FF444ABC0F1A2
:1058E0003C00FFF73BBB01230A9355E50125FFF779
:1058F00089B900BF00293DD070B505460C4608B1F6
:10590000836B7BB3B4F90C300BB9002070BD284613
:10591000214600F031F8E36A064633B12846E169D2
:1059200098470028B8BF4FF0FF36A3891B061CD448
:10593000216B41B104F14003994202D0284600F0A6
:1059400023F900232363616C21B1284600F01CF980
:1059500000236364FDF7FEF80023A381FDF7FCF844
:10596000304670BDFDF7F0F8CCE72846216900F01D
:105970000BF9DDE7002070478B892DE9F0419AB2E1
:105980000D46110780463CD46A6843F40063002A40
:10599000AB8165DDAE6A002E4BD09BB203F4805222
:1059A000002192B2D8F80040C8F80010002A5BD05D
:1059B0002A6D5F0705D569682B6B521A0BB1EB6B2B
:1059C000D21A4046E9690023B047461C56D0AB893D
:1059D0002A6923F400639BB200212A60DA04AB81B8
:1059E00069603BD4296BC8F8004011B305F140034E
:1059F000994202D0404600F0C7F800202863BDE875
:105A0000F0812E69AEB191072C680CBF6B69002341
:105A10002E60A41BAB600AE0324623466F6A404604
:105A2000E969B8470028A4EB0004064404DD002C13
:105A3000F2DC0020BDE8F081AB894FF0FF3043F08D
:105A40004003AB81BDE8F081AB892A6923F4006390
:105A50009BB2AB81DB0469602A60C3D52865C1E7CE
:105A6000EA6B002A96DCE4E701234046E969B04787
:105A7000431C024619D0AB89AE6A9AE7D8F80010E9
:105A80000029E1D01D2907D0162905D0AB8943F0A4
:105A90004003AB81BDE8F081AB89296923F4006341
:105AA0000022AB8185E806009CE7D8F80030002B87
:105AB000E1D01D2B01D0162BBED1C8F80040B8E7AD
:105AC00010B5044682B008B1836B53B1B1F90C0034
:105AD00008B902B010BD204602B0BDE81040FFF783
