:020000040800F2
:1000000000000220250E0008750E0008750E00087D
:10001000750E0008750E0008750E0008000000003F
:10002000000000000000000000000000750E000845
:10003000750E000800000000750E0008090E00088B
:10004000750E0008750E0008750E0008750E000884
:10005000750E0008750E0008750E0008750E000874
:10006000750E0008750E0008750E0008750E000864
:10007000750E0008750E0008750E0008750E000854
:10008000750E0008750E0008750E0008750E000844
:10009000750E0008750E0008750E0008750E000834
:1000A000750E0008750E0008750E0008750E000824
:1000B000750E0008750E0008750E0008750E000814
:1000C000750E0008750E0008750E0008750E000804
:1000D000750E0008750E0008750E0008750E0008F4
:1000E000750E0008750E0008750E0008750E0008E4
:1000F000750E0008750E0008750E0008750E0008D4
:10010000750E0008750E0008750E0008750E0008C3
:10011000750E0008750E0008750E0008750E0008B3
:10012000750E0008750E0008750E0008750E0008A3
:10013000750E0008750E0008750E0008750E000893
:10014000750E0008750E0008750E0008750E000883
:10015000750E0008750E0008750E0008750E000873
:10016000750E0008750E0008750E0008750E000863
:10017000750E0008750E0008750E0008750E000853
:04018000750E0008F0
:10018400FC76000800000020B4090020FC7600087A
:100194000000000000000000B4090020BC0A002098
:1001A4000000000000000000F8B500BFF8BC08BC67
:1001B4009E467047F8B500BFF8BC08BC9E46704721
:0C01C40021040008F5010008D10100082A
:1001D00010B5054C237833B9044B13B10448AFF381
:1001E00000800123237010BDB4090020000000002E
:1001F000F0760008084B10B51BB108480849AFF36A
:1002000000800848036803B910BD074B002BFBD0E2
:10021000BDE81040184700BF00000000F07600085D
:10022000B8090020B409002000000000162030A109
:10023000ABBE2F484168364A11600168002901D1E0
:10024000324901608168C268002900D08D46002AC9
:1002500001D002F5807A00218B460F462548264AB8
:10026000121A00F08FF800F0E7F9152025A1ABBEB7
:100270002449002001B40B780131002B15D0202B2C
:10028000F9D0222B01D0272B01D11A0001E0202226
:10029000013902B401300B780131002B05D09A42AC
:1002A000F9D100224B1E1A70E5E769460200920060
:1002B0006A446B469A4206D9043A14681D68156070
:1002C0001C600433F6E76C460725AC43A5460400E2
:1002D0000D000A48002802D0094800F015F900F086
:1002E00029F82000290000F071FB00F013F800BF8E
:1002F00000000020B4090020BC0A00200905000805
:100300001505000810000020FF000000BC0A0020B6
:100310003C05002008B50021044600F08BF8044B92
:100320001868C36B03B19847204600F03BFB00BF41
:100330002475000870B50F4E0F4D761BB61018BF10
:10034000002405D0013455F8043B9847A642F9D162
:100350000A4E0B4DFFF72AFF761BB61018BF00247C
:1003600006D0013455F8043B9847A642F9D170BD38
:1003700070BD00BFC4010008C4010008CC01000822
:10038000C401000870B4840746D0541E002A41D02E
:10039000CDB2034602E0621EE4B3144603F8015BEB
:1003A0009A07F8D1032C2ED9CDB245EA05250F2C9A
:1003B00045EA054519D9264603F11002103E0F2ED5
:1003C00042F8105C42F80C5C42F8085C42F8045CAD
:1003D00002F11002F2D8A4F1100222F00F0204F090
:1003E0000F041032032C13440DD91E462246043A42
:1003F000032A46F8045BFAD8221F22F003020432D3
:10040000134404F003042CB1C9B21C4403F8011BCB
:10041000A342FBD170BC704714460346C2E700BF3D
:10042000024B13B1024800F06FB8704700000000A3
:10043000150500082DE9F04F81460E46304B83B07C
:100440001B68009303F5A4730193009BD3F84871D4
:1004500027B3DDF804A07C68651E0ED4013407EBD9
:1004600084044FF00008E6B1D4F80031B34218D04C
:10047000013D6B1CA4F10404F5D1224B73B17B68E0
:10048000002B36D13B68002B34D03846CAF80030F8
:10049000AFF30080DAF80070002FDCD103B0BDE8C4
:1004A000F08F7B682268013BAB420CBF7D60C4F8D3
:1004B0000080002ADCD0D7F888310121A9401942F8
:1004C000D7F804B008D190477B685B45BDD1DAF816
:1004D0000030BB42CCD0B8E7D7F88C31194204D1F8
:1004E0004846D4F880109047EEE7D4F88000904753
:1004F000EAE73B68BA461F46002FACD1CEE700BF03
:100500002475000800000000014600200246034652
:1005100000F016B838B5084B084DED1AAC1018BFEE
:10052000ED1805D0013C55F8043D9847002CF9D151
:10053000BDE83840FFF740BECC010008D0010008FC
:100540002DE9F047254C064625688846D5F84841F0
:1005500092469946C4B360681F2817DC411C76B1E7
:1005600004EB8003C3F888A0D4F8885101228240AC
:100570001543022EC4F88851C3F808911ED0831C7D
:100580006160002044F82380BDE8F087144B03B37A
:100590004FF4C870AFF300800446D0B1D5F84831AD
:1005A000002784E888003846C5F848410121C4F88E
:1005B0008871C4F88C71002EE1D0D1E7D4F88C3169
:1005C0001A43C4F88C21DAE705F5A674C5F848414A
:1005D000C1E74FF0FF30BDE8F08700BF2475000889
:1005E000000000000B4B10B50446186808B1836B7F
:1005F0004BB1132C0BD8084850F83430013306D0D7
:1006000000EBC40010BD01F0AFFD132CF3D90020A6
:1006100010BD00BF38050020E009002070B501F0D2
:100620001FFD13240546002620463146ABBE044676
:100630004FF0FF302C6070BD2DE9F047DFF894805B
:1006400084B003270023CDF804800124039701AE72
:10065000029320463146ABBE81461B4D0423CDF8A4
:100660000480C5F800900397029320463146ABBE44
:100670008246DFF864900823CDF80480C9F800A012
:100680000397029320463146ABBE04460F4BD9F880
:100690000060621C1C6008BF34460D4808BF1E6025
:1006A0004FF0FF31002340F833100133142B084A78
:1006B000F9D1296800231160966014615360D360FA
:1006C000536104B0BDE8F087D8090020DC090020A0
:1006D000E009002028750008D009002030B585B059
:1006E000019002910392062401AD20462946ABBE3B
:1006F0000446631C02D0204605B030BDFFF78EFFD4
:1007000005B030BD70B50E461546FFF76BFF0446C9
:1007100058B1314600682A46FFF7E0FF431C03D07A
:100720006368281A0344636070BD01F099FC0923D3
:1007300003604FF0FF3070BDF0B583B00D46144636
:10074000FFF750FF0646002839D0022C26D8012C8E
:1007500021D0022C11D06F4633680A248DE828007E
:1007600020463946ABBE0446631C1ED020460028F6
:1007700022DB2846756003B0F0BD036802AF0C248D
:1007800047F8083D20463946ABBE0446611C0FD0F1
:1007900020460544E0E74368ED18DCD501F060FC35
:1007A000162303604FF0FF30E5E7FFF737FFDEE782
:1007B000FFF734FF421CECD14FF0FF30DBE701F0D4
:1007C0004FFC092303604FF0FF30D4E7FFF7B4BFBD
:1007D00030B585B0019002910392052401AD204609
:1007E0002946ABBE0446631C02D0204605B030BD8E
:1007F000FFF714FF05B030BD70B50E461546FFF784
:10080000F1FE0446E0B12A4631460068FFF7E0FFFA
:10081000021E12DB6368A81A03449542636000D08D
:1008200070BD01F01DFC1325064600242846214614
:10083000ABBE05463560204670BD4FF0FF30EFE798
:1008400001F00EFC092303604FF0FF3070BD00BFC4
:1008500070B582B00446FFF7C5FE064618B3013CEA
:10086000012C11D9336802AD022445F8043D20461D
:100870002946ABBE0446631C10D0204610B94FF089
:10088000FF33336002B070BD0A4B9A681B699A420D
:10089000E8D14FF0FF3303600020F3E7FFF7BEFE1F
:1008A0000028EFD1EBE701F0DBFB092303604FF0F9
:1008B000FF30E7E7E00900200E4A0346106810B554
:1008C00098B1694603448B4208D80B490B4C096820
:1008D000A14201D08B4201D8136010BD01F0C0FBD2
:1008E0000C2303604FF0FF3010BD0549084611602E
:1008F000E7E700BFD40900203C050020ADDEFECABA
:10090000BC0A002070B50D46FFF76CFE0646B0B17C
:100910006B684FF4806243F400536B60EA620C240E
:1009200020463146ABBE0446621C03D020462861F7
:10093000002070BDFFF772FE431CF8D170BD01F0BE
:100940008FFB092303604FF0FF3070BD38B50C46B4
:100950000546002120463C22FFF714FD284621468B
:10096000BDE83840FFF7CEBF70B5FFF73BFE044649
:1009700090B1092528462146ABBE0446012C09D07A
:1009800001F06EFB13250646002428462146ABBE27
:1009900005463560204670BD01F062FB0923036007
:1009A000F8E700BF4FF0FF3100F000B8062930B57E
:1009B0000CBF044D044D182420462946ABBE044606
:1009C000204630BD230002002600020080B5F8B0AA
:1009D00000AF00F0D5F9FFF72FFE3B1D184600F0E1
:1009E00037FC064801F038FF3A1D07F14003104676
:1009F00019461E2200F074FCFEE700BF2C750008AB
:100A000080B485B000AF78607B6803F00703FB60BB
:100A10000C4BDB68BB60BA684FF6FF031340BB604A
:100A2000FB681A02BB68134343F0BF6343F400330F
:100A3000BB60044ABB68D3601437BD465DF8047BD5
:100A4000704700BF00ED00E080B400AF044BDB68EE
:100A500003F4E0631B0A1846BD465DF8047B70474B
:100A600000ED00E080B483B000AF03463960FB7155
:100A700097F90730002B0BDA0D49FB7903F00F03D0
:100A8000043B3A68D2B21201D2B20B441A7609E0A2
:100A9000084997F907303A68D2B21201D2B20B4432
:100AA00083F800230C37BD465DF8047B704700BF18
:100AB00000ED00E000E100E080B489B000AFF86034
:100AC000B9607A60FB6803F00703FB61FB69C3F15F
:100AD0000703042B28BF0423BB61FB690433062BE7
:100AE00002D9FB69033B00E000237B61BB69012263
:100AF00002FA03F35A1EBB681A407B699A407B696D
:100B0000012101FA03F3591E7B680B401343184679
:100B10002437BD465DF8047B704700BF80B582B0C6
:100B200000AF78607B68013BB3F1807F01D3012384
:100B30000FE00A4A7B68013B53604FF0FF300F2102
:100B4000FFF790FF054B00229A60044B07221A60C2
:100B5000002318460837BD4680BD00BF10E000E006
:100B600080B582B000AF78607868FFF749FF08373A
:100B7000BD4680BD80B586B000AF0346B9607A60DF
:100B8000FB7300237B61FFF75FFF78617869B968C9
:100B90007A68FFF791FF024697F90F301846114621
:100BA000FFF760FF1837BD4680BD00BF80B582B03B
:100BB00000AF78607868FFF7B1FF03461846083742
:100BC000BD4680BD80B582B000AF78607B68002BE9
:100BD00001D101231DE07B6893F83930DBB2002B93
:100BE00006D17B68002283F83820786800F016F878
:100BF0007B68022283F839207B681A687B6804339B
:100C00001046194600F014F87B68012283F8392059
:100C1000002318460837BD4680BD00BF80B483B0AE
:100C200000AF78600C37BD465DF8047B704700BFAD
:100C300080B485B000AF786039600023FB607B68CA
:100C40001B68FB607B68434A934213D07B68B3F117
:100C5000804F0FD07B68404A93420BD07B683F4A5D
:100C6000934207D07B683E4A934203D07B683D4A5B
:100C7000934201D1012300E00023002B08D0FB6840
:100C800023F07003FB603B685B68FA681343FB600A
:100C90007B68304A93422BD07B68B3F1804F27D0DA
:100CA0007B682D4A934223D07B682C4A93421FD005
:100CB0007B682B4A93421BD07B682A4A934217D009
:100CC0007B68294A934213D07B68284A93420FD00D
:100CD0007B68274A93420BD07B68264A934207D011
:100CE0007B68254A934203D07B68244A934201D112
:100CF000012300E00023002B08D0FB6823F440739D
:100D0000FB603B68DB68FA681343FB607B68FA684A
:100D10001A603B689A687B68DA623B681A687B688D
:100D20009A627B680B4A934203D07B680D4A9342D8
:100D300001D1012300E00023002B03D03B681A6996
:100D40007B681A637B6801225A611437BD465DF8DF
:100D5000047B704700000140000400400008004090
:100D6000000C0040000401400040014000440140EC
:100D70000048014000180040001C004000200040D6
:100D800080B500AF0E4A0E4B1B6843F4007313602E
:100D90000B4A0B4B1B6843F480631360084A084BF3
:100DA0001B6843F4807313600320FFF7D9FE0F2004
:100DB00000F00EF800F006F80023184680BD00BFD2
:100DC000003C024080B400AFBD465DF8047B704734
:100DD00080B582B000AF7860094B1B68094AA2FB5E
:100DE00003239B091846FFF7E1FE4FF0FF307968B7
:100DF0000022FFF7BFFE002318460837BD4680BD1E
:100E000040050020D34D621080B400AF044B1B6836
:100E10000133034A1360BD465DF8047B704700BF91
:100E2000B40A0020DFF834D0002103E00C4B5B58FB
:100E3000435004310B480C4B42189A42F6D30B4AEC
:100E400002E0002342F8043B094B9A42F9D300F038
:100E500013F8FFF76FFAFFF7B9FD704700000220A3
:100E6000FC76000800000020B4090020B40900202E
:100E7000BC0A0020FEE7000080B500AF114A114B0C
:100E80001B6843F0010313600E4B00229A600D4A69
:100E90000C4B1B6823F0847323F480331360094BDD
:100EA000094A5A60074A074B1B6823F480231360E2
:100EB000044B0022DA6000F00BF8044B4FF00062A4
:100EC0009A6080BD003802401030002400ED00E040
:100ED00080B400AF1D4A1D4B9B6893601B4A1B4B9F
:100EE0009B6843F400439360184A184B9B6843F493
:100EF000A0539360154B164A5A60144A134B1B6853
:100F000043F08073136000BF104B1B6803F0007345
:100F1000002BF9D00F4B40F203721A600B4A0B4BB7
:100F20009B6823F003039360084A084B9B6843F0D7
:100F30000203936000BF054B9B6803F00C03082B72
:100F4000F9D1BD465DF8047B704700BF0038024010
:100F500010300008003C024080B500AF1020012195
:100F600000F058F91020002100F054F980BD00BFB6
:100F700080B483B000AF7860244A244B1B6823F010
:100F8000380313602149214B1B687A685288134348
:100F90000B601E4A1D4B1B6823F0C00313601B49E6
:100FA0001A4B1B687A68928813430B607B685B88D6
:100FB000202B0BD07B685B88282B07D07B685B8855
:100FC000302B03D07B685B88382B0CD10F4A0F4B3A
:100FD0001B6823F4407313600C490C4B1B687A6840
:100FE000D28813430B60094A084B1B6823F00403A3
:100FF00013600649054B1B687A68128813430B601F
:101000000C37BD465DF8047B704700BF00000650FA
:1010100080B483B000AF78607B6800221A807B6860
:1010200000225A807B6800229A807B680022DA8046
:101030000C37BD465DF8047B704700BF80B483B0B9
:1010400000AF7860124A7B681B681362104A7B68A5
:101050005B6853620E4A7B689B6893620C4A7B68AC
:10106000DB68D3620A4A7B681B691363084A7B68A2
:101070005B695363064A7B689B699363044A7B6898
:10108000DB69D3630C37BD465DF8047B704700BF56
:101090000000065080B483B000AF78607B68002207
:1010A0001A607B6800225A607B6800229A607B6825
:1010B0000022DA607B6800221A617B6800225A6194
:1010C0007B6800229A617B680022DA610C37BD469A
:1010D0005DF8047B704700BF80B483B000AF7860D8
:1010E0000A4A7B681B681364084A7B685B68536420
:1010F000064A7B689B689364044A7B68DB68D36418
:101100000C37BD465DF8047B704700BF00000650F9
:1011100080B483B000AF78607B6800221A607B687F
:1011200000225A607B6800229A607B680022DA60A5
:101130000C37BD465DF8047B704700BF80B400AF3C
:10114000044A044B1B6843F480431360BD465DF8BA
:10115000047B70470000065080B483B000AF0346A4
:10116000FB71FB79002B06D0084A084B1B6843F43F
:101170000043136005E0054A044B1B6823F4004359
:1011800013600C37BD465DF8047B704700000650C5
:1011900080B483B000AF7860034A7B6893600C37FB
:1011A000BD465DF8047B70470000065080B400AF78
:1011B000034BDB681846BD465DF8047B704700BFF3
:1011C0000000065080B485B000AF0346FB710023D9
:1011D000FB730023BB60FB7903F02003002B03D0DB
:1011E0000B4B9B69BB6002E0094B5B68BB60FA7903
:1011F000BB681340002B02D00123FB7301E00023E6
:10120000FB73FB7B18461437BD465DF8047B7047C3
:101210000000065080B483B000AF78600B46FB70CE
:10122000FB78002B06D00949084B5A697B681343A9
:101230004B6106E00549054B5A697B68DB43134067
:101240004B610C37BD465DF8047B704700380240A7
:1012500080B584B000AF78607B684FF080421A6040
:101260000023FB600F4A0F4B1B6C43F00103136418
:101270000C4B1B6C03F00103FB60FB687B680122D5
:101280005A607B6800229A607B684FF0FF32DA6018
:101290007B6801221A617868FFF794FC1037BD461D
:1012A00080BD00BF0038024080B483B000AF7860DA
:1012B0007B681B6800225A620C37BD465DF8047BD0
:1012C000704700BF80B483B000AF78607B681B6854
:1012D0005B6A18460C37BD465DF8047B704700BF5B
:1012E00080B5C8B002AF07F10C03186007F108031E
:1012F0001960FB1D1A700023C7F8143125E007F1AF
:101300000C031868FFF7D0FF07F1080300220092D2
:10131000186813491022134B00F094FA07F10803E0
:1013200018681149104A102300F0C0FA07F10C03A5
:101330001868FFF7C7FF03460C48194601F046FA44
:10134000D7F814310133C7F81431FB1D1A78D7F8D8
:1013500014319A42D3DC07F58C77BD4680BD00BFBF
:101360003475000844750008547500086475000859
:101370002DE9F04F0C464FF000084FF000090246EF
:10138000C24602F10803D3E90023CB4685B0A4F19D
:10139000080C08340294039003C8FCE902454FF09E
:1013A000400ECDF804C013E056EA070C1CBF00261F
:1013B0004FF0004749084FEA300024196D41BEF153
:1013C000010E42EA060243EA070381F0614122D09E
:1013D000002C75F1000C02F001064FF0000727DB2E
:1013E0005B084FEA32023E4300F001064FF000076F
:1013F000DAD156EA070C1CBF00264FF00047490817
:101400004FEA300024196D41BEF1010E42EA060296
:1014100043EA0703DCD1DDF804C0029CA445BCD13B
:10142000039AC2E90089C2E902AB05B0BDE8F08FBA
:1014300088EA000889EA01098AEA020A8BEA030BB2
:10144000CEE700BF2DE9F04180468AB002A80D46E4
:101450001446FFF71FFE6846FFF7DAFDFFF77CFD35
:10146000D8F8F0300C2B61D00E2B47D00A2B38D097
:1014700002A8FFF7E3FD0021202280236846ADF893
:101480000010ADF80220ADF80430FFF771FD012027
:10149000FFF762FEFFF752FE2868FFF779FE6868E3
:1014A000FFF776FEA868FFF773FEE868FFF770FEA7
:1014B0001020FFF787FE05460028F9D1FFF776FEDA
:1014C0002060FFF773FE6060FFF770FEA060FFF71B
:1014D0006DFEE0602846FFF73FFE28460AB0BDE8F3
:1014E000F081D8F8006008F10400002307C80696D0
:1014F000079008910992ADF80630B9E708F10800A5
:101500000FC80793D8F81830D8F80070D8F80460DE
:101510000893D8F81C304FF4007E09930297039685
:10152000049005910692ADF806E0A1E7D8F80060B6
:10153000D8F8147008F104004FF4807E0FC80496A8
:1015400005900691079208930997ADF806E08FE79A
:101550002DE9F04F164697B000F58A740792D0F83F
:101560001401A268059106936168E3680EAD0FC58A
:101570000FA90EC9002405BA08BA11BA1ABA0F95F4
:101580000E90119110920A940C940B940D94002ECD
:1015900000F0A6800598002800F02C813209511E29
:1015A000029106F00F010992089126462746002A6B
:1015B00000F0278112AB04930AAB8246A046A146F5
:1015C000A3460193354605E00BF1010BDDE90A89DD
:1015D000DDE90C45DAF80000DAF80410DAF8082042
:1015E000DAF80C30DDF810E00AF1100AAEE80F006E
:1015F000159913980EBA129902BA0BBA149989EA7E
:1016000003090FBA88EA020874407D4001980EA9C8
:10161000CDE91223CDE90A89CDE90C45CDE914675E
:10162000FFF7A6FE029B9B45CED1059B099ADDE9FB
:101630000A8903EB02130593DDE90C67089B002B75
:1016400054D01A460599002312A8129313931493A9
:10165000159301F041F8139912980ABA159903BA33
:101660000CBA149983EA09030DBA82EA080274409D
:101670007D4001980EA9CDE90A23CDE90C45FFF77D
:1016800077FEDDE90A89DDE90C67209B002B30D16C
:10169000209D079C6B0FEA00019D610FE000564002
:1016A0005F4088EA000889EA010928460EA9CDE9C9
:1016B0000C67CDE90A89FFF75BFE0A9C0BA80DC8F1
:1016C000294626BA05BA14BA1BBA2198229A0B9653
:1016D0000A950D940C9300F0FFFF17B0BDE8F08F52
:1016E00026462746A046A1460AAB0193209B002B25
:1016F000CED006990029CBD0209B1B095A1E0592FB
:10170000209A099302F00F020892002B47D012ABE7
:10171000CDE902678A464FF0000B049346464F46D8
:1017200007E0DDE90C23CDE90223DDE90A670BF1CF
:10173000010BDAF80000DAF80410DAF80820DAF819
:101740000C30049C0AF1100A0FC412981499139DCE
:10175000159C0BBA22BA95FA85F890FA80F9DDE962
:10176000024586EA08065D40544087EA0907019869
:101770000EA9CDE91423CDE90A67CDE91289CDE997
:101780000C45FFF7F5FD059B5B45CAD1069B099A01
:10179000DDE90A8903EB02130693DDE90C67089B78
:1017A000002B3FF475AF1A460699002312A8129336
:1017B00013931493159300F08FFF159C139D20BA7B
:1017C000129C2ABA23BA149C82EA080221BA83EA3C
:1017D000090380EA060481EA070501980EA9CDE90C
:1017E0000A23CDE90C45FFF7C3FDDDE90A89DDE9F0
:1017F0000C674DE70AAB26462746A046A146019353
:1018000074E70AABA046A146019317E7B0B138B51B
:101810000B4661B10D684C68DA68896800F1F40321
:10182000C0F8F4505C609960DA60002038BD0C4666
:101830001022F430FEF7A6FD204638BD6FF0AC0054
:10184000704700BF2DE9F04122F00804102C01D0B0
:10185000202A1ED1074696089846B31DC0F8F030DE
:1018600000F03AFF00253B1F53F8044F013504F008
:10187000FF22110A04F0FF1241EA02224FEA32422B
:10188000B5421A60F0D338464146BDE8F041FFF753
:10189000BDBF6FF0AC00BDE8F08100BF18B1C0F86B
:1018A0002411002070476FF0AC0070472DE9F04123
:1018B00080468EB006A81E460C461546FFF7EAFB8A
:1018C0006846FFF7A5FB02A8FFF722FCFFF744FBE1
:1018D000D8F8F03008F1F4070C2B00F090800E2BB4
:1018E00076D00A2B69D006A8FFF7A8FB08F1F00014
:1018F00008F5807E50F8041F01F0FF231A0A01F05A
:10190000FF1342EA03234FEA334370450360F1D1EA
:10191000D8F8000108F1F401059002A80EC902915F
:1019200003920493FFF7D8FB684600212822802306
:10193000ADF80010ADF80220ADF80430FFF718FB49
:101940000120FFF709FC8EB31035FFF7F7FB55F8C0
:10195000100CFFF71DFC55F80C0CFFF719FC55F89F
:10196000080CFFF715FC55F8040CFFF711FC1020CC
:10197000FFF728FC0028FAD1FFF718FC2060FFF7DA
:1019800015FC6060FFF712FCA060FFF70FFC103E33
:10199000E060A319186859689A68DB68103510343C
:1019A00038607960BA60FB60002ECED10020FFF76E
:1019B000D3FB00200EB0BDE8F0814FF0000E98E898
:1019C0000F00ADF806E00A900B910C920D938AE798
:1019D00098E80F000993D8F8103006900791D8F8CE
:1019E0001800D8F81C100A93D8F8143008924FF455
:1019F00000720B930C900D91ADF8062073E798E8F8
:101A00000F000B93D8F8103008900C93D8F81430CE
:101A10004FF4807009910A920D93ADF8060062E7C9
:101A20002DE9F0479A46144681468EB006A80D4629
:101A3000FFF730FB6846FFF7EBFAAAF1100802A89F
:101A4000FFF766FB04EB0803186859689A68DB68BF
:101A500009F58276C9F80401F3607160B260FFF79E
:101A60007BFAD9F8F03009F1F4070C2B00F0B480C0
:101A70000E2B00F097800A2B00F08780042138227B
:101A800000236846ADF80010ADF80220ADF8043030
:101A9000FFF76EFA06A8FFF7D1FA0120FFF75CFB0B
:101AA0001020FFF78FFB0028FAD168460421282276
:101AB0008023ADF80010ADF80220ADF80430FFF738
:101AC00057FA09F1F00009F5807E50F8041F01F083
:101AD000FF231A0A01F0FF1342EA03234FEA3343BC
:101AE00070450360F1D1D9F8000109F1F4010590C6
:101AF00002A80EC9029103920493FFF7EDFA0120A8
:101B0000FFF72AFBBAF1000F38D010341035FFF779
:101B100015FB54F8100CFFF73BFB54F80C0CFFF7C7
:101B200037FB54F8080CFFF733FB54F8040CFFF7AD
:101B30002FFB1020FFF746FB0028FAD1FFF736FBFA
:101B400045F8100CFFF732FB45F80C0CFFF72EFBA5
:101B500045F8080CFFF72AFB45F8040C306871685B
:101B6000B268F3681034103538607960BA60FB6091
:101B7000B8F1000F02D0A8F11008C8E70020FFF765
:101B8000EBFA00200EB0BDE8F087D9F8003009F17B
:101B900004000A93002307C8ADF806300B900C919F
:101BA0000D926BE7D9F8003009F104000693D9F8DB
:101BB000103007C807900891D9F81400D9F8181008
:101BC0000992D9F81C200A934FF400730B900C91E2
:101BD0000D92ADF8063051E799E80E00D9F80C00E7
:101BE00008910992D9F81010D9F814200A934FF4EB
:101BF00080730B900C910D92ADF806303EE700BF5C
:101C000030B522F00803102B87B001D0202A16D15E
:101C10000024009402AB02940394049405940546B6
:101C2000FFF710FE044608B107B030BD02A92846F0
:101C300005F58A72FFF706FC204607B030BD6FF04D
:101C4000AC00F1E72DE9F04F1D4697B0219C0993B8
:101C5000059100230492290905F00F020C2C06912E
:101C600007920E930F931093119308900DF1380A79
:101C700000F0D9801022029219461A468DE810040D
:101C8000209BFFF765FC9AE80F000AAC84E80F0080
:101C9000069B002B00F0D180059BDDF818B0049F57
:101CA000089C12AE03F110080DF134090DF157052F
:101CB000524612F8013D0133DBB213700BB94A45AD
:101CC000F7D120460AA93246FFF7BCFBB80776D108
:101CD0003046391F07F10C0E026851F8043F53409B
:101CE000714540F8043BF7D1B646BBF1010BBEE8A5
:101CF0000F0007F1100748F8100C48F80C1C48F8C2
:101D0000082C48F8043C08F11008D1D1069B1C01AE
:101D1000049B23440493059B1C44079B43B35246F6
:101D20000DA912F8013D0133DBB213700BB98A42E1
:101D3000F7D10AA932460898FFF784FB049B079A5B
:101D4000134399075AD190080DD0049B3246194687
:101D500003EB800051F8043B1568814283EA0503D8
:101D600042F8043BF6D12046079A314600F0B4FC15
:101D7000099B089C0093229B20460193239B249956
:101D80000293259A059BFFF7E3FB32462046514616
:101D9000FFF758FB229B239A13439B071CD052B199
:101DA0002299239A88180B7816F8012B534001F8D2
:101DB000013B8142F7D1002017B0BDE8F08F0DF153
:101DC0004701781E11F8013F10F8012FA94283EA5C
:101DD00002030B70F6D187E7239B9808EBD022997A
:101DE00001EB80000A6856F8043B534041F8043B7D
:101DF0008142F7D1002017B0BDE8F08F049B079D0A
:101E00001A462B443146184612F8015B0B78824281
:101E100083EA050301F8013BF6D12046079A3146D3
:101E200000F05AFCA4E75346209A01241068516838
:101E3000926807C38DF8474025E712AE059C6CE712
:101E40002DE9F04F1E4699B0239C049232090023DD
:101E500007920C2C06F00F02059106920C930D933D
:101E60000E930F938346259D00F0D98010220CA974
:101E70000191029219461A460094229BFFF768FBD3
:101E80000CAB0FCB0DF1200A009610AC10268AE89F
:101E90000F00049B029658462699279A0194FFF753
:101EA00057FB514614AA5846FFF7CCFA109E1499D6
:101EB000119A159B4E4012985A401399169B179FE2
:101EC00043407940002D10961192129313910FDD2B
:101ED000249900200D4411F8013B14F8012BA9426C
:101EE00083EA020340EA0300F5D1002840F0A18014
:101EF000079B002B40D0059BDDF81C90049E03F14E
:101F000010070DF12C080DF15F050CAA12F8013D28
:101F10000133DBB213700BB94245F7D114AA58460E
:101F20005146FFF78FFAB20757D114A8311F06F1B7
:101F30000C04026851F8043F5340A14240F8043BAE
:101F4000F7D114ACB9F101090FCCA7F1100E47F885
:101F5000100C47F80C1C47F8082C47F8043C06F115
:101F6000100607F11007D0D1079B059A1B011A44F0
:101F70000592049A1A440492069B53B30DF130095A
:101F80000BAA19F8013D0133DBB289F800300BB917
:101F90009145F6D114AA58465146FFF753FA049BCF
:101FA000069A13439B0725D194080DD0049B14A9CE
:101FB000184603EB840450F8043B0A68A04283EA05
:101FC000020341F8043BF6D1059814A9069A00F0E3
:101FD00083FB002019B0BDE8F08F0DF14F01701E9A
:101FE00011F8013F10F8012FA94283EA02030B7098
:101FF000F6D1A6E7049B069A194613441C4614A87A
:1020000011F8012B0378A14283EA020300F8013B97
:10201000F6D1059814A9069A00F05EFBD9E7229A3A
:102020000CAB106851689268012407C38DF83F40DB
:1020300026E76FF0B300CDE7FFF7E2BD70B586B0DD
:102040000A9E0B9D0C9C0091002101920493059621
:10205000029503940A460B46FFF7F4FD06B070BDE7
:10206000014B1868704700BF38050020014900F097
:1020700085B800BF154F00082DE9F04F07463548D9
:102080007D68002407F53B7204230321F863C7F839
:10209000E412C7F8E822C7F8E04283B02C606C6015
:1020A000AC606C66EC812C616C61AC61AB812146EB
:1020B00005F15C000822FEF765F9DFF89CB0BE6808
:1020C000DFF898A0DFF89890DFF8988001230922C4
:1020D000C5F820B0C5F824A0C5F82890C5F82C8014
:1020E000ED612146F381B28106F15C0034607460D9
:1020F000B460746634617461B46108220193FEF7C0
:1021000041F9FD6812200222F661C6F820B0C6F837
:1021100024A0C6F82890C6F82C802146A881EA8120
:102120002C606C60AC606C662C616C61AC6105F11C
:102130005C000822FEF726F9019BED61C5F820B08E
:10214000C5F824A0C5F82890C5F82C80BB6303B05F
:10215000BDE8F08F6D2000088D280008B128000828
:10216000E928000809290008836B03B17047FFF7CD
:1021700083BF00BF704700BF704700BF2DE9F84321
:1021800010F538761ED0884607464FF0000975686E
:10219000B468013D10D4A389013D012B08D9B4F9DD
:1021A0000E30013304D038462146C04749EA0009C1
:1021B0006B1C04F16804EED13668002EE7D1484666
:1021C000BDE8F883B1464846BDE8F8832DE9F04FF5
:1021D00001F10B05162D83B0064627D935F007050A
:1021E00000F1B680A94200F2B38000F0EBFAB5F539
:1021F000FC7F22D2BC4FE80807EBC003DC689C429E
:1022000000F0BC816368E16823F0030323445A684B
:10221000A56842F00102E96030468D605A6000F026
:10222000D3FA0834204603B0BDE8F08F102900F23D
:102230008F8000F0C7FA1025DCE7680A00F08F8075
:10224000042800F24781A80938304100A64F07EB67
:102250008101CC68A14206D10CE0002A80F2828084
:10226000E468A14206D0636823F003035A1B0F2AD7
:10227000F3DD013801309C493C6901F1080E7445D9
:1022800000F07181636823F003035A1B0F2A00F3E7
:102290005781002AC1F814E0C1F810E066DAB3F5FE
:1022A000007F80F02D81DB0801EBC3084FEAA30C0F
:1022B0004A68012303FA0CF3D8F808C01343C4F8A2
:1022C00008C0C4F80C804B60C8F80840CCF80C403B
:1022D0008210012494409C4255D8234206D120F01C
:1022E00003006400234200F10400FAD007EBC008A9
:1022F000C4468146DCF80C309C4507D135E1002905
:1023000080F24581DB689C4500F02F815A6822F0FD
:102310000302511B0F29F2DD1C46DA6854F808CF7E
:1023200045F0010941F001081D44C3F8049030460E
:10233000CCF80C20C2F808C07D613D61C5F80CE006
:10234000C5F808E0C5F80480695000F03DFA69E777
:10235000002420460C23336003B0BDE8F08F7E21BB
:102360003F2073E723445A68E16851E723445A68E1
:10237000304642F001025A60083400F025FA204647
:1023800003B0BDE8F08FBC68636823F003084545DF
:1023900004D8C5EB08030F2B00F38C80534BDFF8F8
:1023A0005CA11A68DAF800302A44013304EB080B08
:1023B00000F0518102F580520F3222F47F6222F048
:1023C0000F0211463046019200F04EFAB0F1FF3F85
:1023D0008146019A00F04881834500F2EF80444B2A
:1023E000CB4519681144196000F04381DAF8000008
:1023F000DFF808E101301BBFCBEB090B5944CEF8E5
:102400000090196019F0070100F00881C1F108007F
:10241000C1F58051814408314A44C2F30B02C2EB3A
:10242000010A51463046019300F01EFA431C019BFD
:1024300000F02D81C9EB0002524442F001021968FC
:10244000BC425144C7F808901960C9F80420DFF86D
:10245000A0A016D0B8F10F0F40F2EF806268A8F18B
:102460000C0323F0070302F00102E0184FF0050E01
:102470001A430F2B6260C0F804E0C0F808E000F2D5
:102480000A811C4BBC681A68914288BF19601A4BBC
:102490001A689142626888BF196022F0030295426F
:1024A000A2EB050301D80F2B04DC304600F08CF9B9
:1024B0000024B7E645F0010243F0010325446260C1
:1024C0003046BD6008346B6000F07EF9204603B0F2
:1024D000BDE8F08F142869D9542800F29880280BA1
:1024E0006E304100B2E600BF44050020880A00209B
:1024F0008C0A0020840A0020800A00205009002055
:102500005A0A042A55D9142A00F2A7805B324FEAEE
:10251000420C07EB8C0CDCF80810DFF8B881614541
:102520007FD04A6822F00302934202D289688C4528
:10253000F7D1CA687B68E260A1609460CC60C7E6AE
:1025400045F0010742F001032544676030464D61C4
:102550000D61C5F80CE0C5F808E06B60AA500834BE
:1025600000F032F95EE64B68B2E609F1010919F0B4
:10257000030F0CF1080C7FF4BDAE2CE004F108034E
:102580006469A34208BF02303FF475AE3AE61C46C8
:102590001A445168DB6854F8085F41F0010151604A
:1025A0003046EB609D6000F00FF93BE65B30410088
:1025B0004CE69A0938324FEA420CAAE7BC42454B36
:1025C0003FF40DAF9C68626822F0030267E7D8F819
:1025D000008098457CD110F0030FA8F1080300F1AA
:1025E000FF30F4D17B6823EA04037B6064009C42E3
:1025F0003FF6C9AE002C3FF4C6AE234248467FF4F6
:1026000075AE6400234200F10400FAD06EE6B0F526
:10261000AA7F18D8E80B7730410017E64FF48051B5
:10262000FAE6D8F8043092104FF0010C0CFA02F2DE
:102630001343C8F804300A467DE70123C9F8043083
:102640004C4600222BE740F2545398421CD8A80C69
:102650007C304100FAE51032B3E6542A23D81A0B35
:102660006E324FEA420C54E7BC68626822F0030203
:1026700015E7CBF30B0000287FF4B8AE4244BB68EB
:1026800042F001025A60FCE6FC217E20DEE50122D8
:102690004FF0000AD3E604F10801304602F084FD51
:1026A000DAF80010EDE6B2F5AA7F04D8DA0B77323B
:1026B0004FEA420C2DE740F254518A4204D89A0C5A
:1026C0007C324FEA420C24E74FF0FC0C7E2220E7DC
:1026D0007B688BE744050020844641EA000313F041
:1026E000030349D1403A23D30B6803604B6843602E
:1026F0008B688360CB68C3600B6903614B6943617E
:102700008B698361CB69C3610B6A03624B6A436265
:102710008B6A8362CB6AC3620B6B03634B6B43634D
:102720008B6B8363CB6BC36340304031403ADBD269
:1027300030320BD30B6803604B6843608B68836057
:10274000CB68C36010301031103AF3D20C3205D38D
:1027500051F8043B40F8043B043AF9D2043208D063
:10276000D2071CBF11F8013B00F8013B01D30B88D5
:1027700003806046704700BF082A13D38B07B1D08F
:1027800010F00303AED0C3F10403D21ADB071CBF61
:1027900011F8013B00F8013BA4D331F8023B20F8CB
:1027A000023B9FE7043AD9D3013A11F8013B00F804
:1027B000013BF9D20B7803704B7843708B788370B0
:1027C00060467047704700BF704700BF0FB410B538
:1027D000074B82B004AC54F8042B18682346816878
:1027E000019400F0C3F802B0BDE8104004B0704797
:1027F00038050020F0B5054689B008460C4600F0C3
:1028000087F8431C134F0393AB6B012604A90222E4
:1028100004940590AC680697079601910292ABB1BB
:10282000A3899A0406D4626E43F4005322F4005242
:10283000A38162662846214601AA02F08DFD002888
:1028400014BF4FF0FF300A2009B0F0BD2846FFF753
:102850008BFCE5E768750008024B01461868FFF736
:10286000C9BF00BF3805002038B5074C0023054616
:1028700008462360FEF720F8431C00D038BD2368CB
:10288000002BFBD02B6038BDB80A002010B50C46D9
:10289000B1F90E1003F02EFB002803DB236D034477
:1028A000236510BDA38923F48053A38110BD00BF0D
:1028B0002DE9F0410C4689891D46CB051646074691
:1028C00006D5B4F90E100022022302F0E3FEA1891E
:1028D00021F48051A1813846B4F90E1032462B46BE
:1028E000BDE8F04101F0A4BA10B50C46B1F90E10E4
:1028F00002F0D0FEA389421C0EBF23F4805343F4A0
:1029000080532065A38110BDB1F90E1001F006BB04
:1029100020F0030110F00300C0F1000051F8043B67
:1029200000F1040C4FEACC0C6FF000021CBF22FA3D
:102930000CF213434FF0010C4CEA0C2C4CEA0C4CFB
:10294000A3EB0C0222EA030212EACC1204BF51F8F4
:10295000043B0430F4D0C2F1000102EA0102B2FAF1
:1029600082F2C2F11F0200EBD20070472DE9F04F56
:10297000BFB01C4689460892074602F087FE0368EE
:102980000C9418461593FFF7C3FF16901FB1BB6B4D
:10299000002B00F0F480B9F80C2093B29D040AD407
:1029A000D9F8641042F4005321F40051A9F80C3016
:1029B000C9F864109BB2180740F1AB80D9F8102019
:1029C000002A00F0A68003F01A030A2B00F0AD8065
:1029D00000231A460DF1B80C6446B84611931493BF
:1029E0001793099323932293CDF884C012921392E4
:1029F000089D2B78002B00F0C680252B02D1C2E069
:102A0000252B03D015F8013F002BF9D1089BEE1AB6
:102A10007EB1229B239A013308993244072B84E824
:102A200042002392229300F393800834099B33449D
:102A300009932B78002B00F0938000234FF0FF3A8E
:102A40001A465646691C6D788DF867300A930693CE
:102A50004B1CA5F12001582900F2C083DFE811F0DA
:102A60005602BE03BE039902BE03BE03BE03BE03ED
:102A7000BE03BE03A0026402BE03F201F002BE0365
:102A80006E02750275027502750275027502750295
:102A900075027502BE03BE03BE03BE03BE03BE03C2
:102AA000BE03BE03BE03BE0366032703BE032703A4
:102AB000BE03BE03BE03BE035F03BE03BE030A0321
:102AC000BE03BE03BE03BE03BE03A803BE03BE0314
:102AD0007F03BE03BE03BE03BE03BE03BE03BE032D
:102AE000BE03BE03BE039403AE02270327032703DE
:102AF000CC02AE02BE03BE03D302BE03DD02F90167
:102B000084025D02BE030B02BE039500BE03BE033A
:102B100030023846494601F09FF9A0B9B9F80C30A7
:102B200003F01A030A2B7FF453AFB9F90E30002BD0
:102B3000FFF64EAF38464946089A234601F03AF967
:102B40003FB0BDE8F08F4FF0FF303FB0BDE8F08FF1
:102B50004046494621AA03F039FC40B92EAC65E74E
:102B6000239B23B14046494621AA03F02FFCB9F824
:102B70000C305A06E7D409983FB0BDE8F08F3846CC
:102B8000FFF7F2FA07E7089D53E70893069BB24662
:102B90009E0640F117830C9F073727F0070303F1C8
:102BA0000802D3E900670C92012300229446CDF875
:102BB0003CA08DF86720BAF1000F03DB069A22F0E3
:102BC0008002069256EA070240F02A83BAF1000F0B
:102BD00000F02884012B00F02B83022B00F0758479
:102BE0002EA9F20842EA4772F80806F007030746E2
:102BF0001646303356EA070201F8013DF1D1069A34
:102C00000E91D00700F113852EAB5B1A0B930B9A34
:102C100053469245B8BF1346079300231093BCF167
:102C2000000F02D0079B01330793069B13F00203AA
:102C30000D9302D0079B02330793069B13F0840683
:102C400040F0EB820A9B079AC2EB030ABAF1000F2D
:102C500040F3E382BAF1100F2399229AB44FC8BF10
:102C60004FF0100B07DC1EE0AAF1100ABAF1100FAA
:102C700004F1080417DD01321031072A2391229252
:102C800084E88008F0DD4046494621AA03F09EFB17
:102C900000287FF46CAFAAF1100ABAF1100F2EAC25
:102CA0002399229AE7DC01320AEB010B072ACDF8BF
:102CB0008CB0229284E8800400F3A4829DF867C05F
:102CC0000834BCF1000F0FD0229B0BF1010B013334
:102CD0000DF167010122072BCDF88CB0229384E817
:102CE000060000F3BD8308340D9B73B1229B0BF1EA
:102CF000020B01331AA90222072BCDF88CB02293C4
:102D000084E8060000F3B8830834802E00F0FB82CC
:102D10000F9B0B9AC2EB030ABAF1000F32DDBAF136
:102D2000100F229A834F22DD10265B4606E0AAF19F
:102D3000100ABAF1100F04F1080417DD0132103344
:102D4000072A2393229227606660F0DD40464946B9
:102D500021AA03F03BFB00287FF409AFAAF1100A77
:102D6000BAF1100F2EAC239B229AE7DC9B4601326E
:102D7000D344072ACDF88CB0229284E8800400F373
:102D800063830834069BDB0500F16682229B0B9966
:102D900001330E9A8B44072BCDF88CB02260616012
:102DA000229300F380830834069B59073AD50A9B87
:102DB000079A9D1A002D35DD102D229B5C4F1EDDDC
:102DC00010265A4604E0103D102D04F1080415DDCC
:102DD00001331032072B2392229327606660F2DDC5
:102DE0004046494621AA03F0F1FA00287FF4BFAE1D
:102DF000103D102D2EAC239A229BE9DC9346013323
:102E0000AB44072BCDF88CB022932760656009DDB9
:102E10004046494621AA03F0D9FA00287FF4A7AE1C
:102E2000DDF88CB0099B079A0A998A42ACBF9B18BF
:102E30005B180993BBF1000F40F0EA820023229354
:102E40002EACD5E51946069840F0040006901D7892
:102E5000FEE50893069BB24613F0200300F01581AF
:102E60000C9F073727F0070303F10802D3E9006737
:102E70000C92002399E60C9A089313684FF0000B0C
:102E80000E938DF867B0171D002B00F07E86002E84
:102E90000E98C0F230865946324602F07FFC002878
:102EA00000F0AF860E9BCDF83CB0C31A0B930C9785
:102EB00023EAE3730793CDF840B09DF867C0AEE610
:102EC00008931D4BB2461493069B8DF86720990614
:102ED00040F14F810C9F073727F0070303F10802E9
:102EE0000C92D3E90067069BDB0740F1078356EAA3
:102EF000070300F00383069A302342F002028DF8A4
:102F000068308DF86950069202234EE6002A40F0A0
:102F100031851D78194620229AE5069941F0200155
:102F200006911D78194693E51D7819462B228FE5E9
:102F3000C07500086C750008A0750008069941F07E
:102F4000800106911D78194682E5A5F13000002127
:102F500013F8015B01EB810100EB4101A5F13000A9
:102F60000928F5D90A9174E50C9A0699089330233B
:102F70008DF86830B44BB2467825166841F00201EE
:102F80000432149306910C9200278DF869500223A5
:102F90000BE6069941F0010106911D78194657E5A7
:102FA0000C9D296808460A912946002801F1040170
:102FB000C0F26F850C911D78194649E50893069B70
:102FC000B24699068DF8672040F1BC800C9F073708
:102FD00027F00707D7E9002307F1080116461F4627
:102FE0000C91002A73F10003C0F2E6839DF867C0DC
:102FF000CDF83CA00123DEE5069941F040010691A1
:103000001D78194624E51D7806996C2D00F03A8547
:1030100041F01001069119461AE50893069B8DF8B8
:1030200067209A0640F175840C9A134604330C937A
:10303000099B1168DF171A463B46C1E90023D7E414
:103040001D78591C2A2D00F09E86A5F13000092814
:103050000B464FF000063FF6FCAC13F8015B06EBA5
:10306000860600EB4606A5F130000928F5D946EAA8
:10307000E676EEE40893069BB24643F0100306930F
:10308000069B13F020037FF4EBAE069A12F01002B9
:1030900040F08182069B13F0400300F07C820C9983
:1030A00013460A4604320E8800270C927DE50893E9
:1030B000069B0C9F1B07B2468DF86720B34607F1AD
:1030C000070740F10B8427F0070303F108020C9275
:1030D0001A685B68129213931399129803F00EF911
:1030E00001281399129840F075830022002303F001
:1030F000EFFE002840F06B859DF867C0534A544BA3
:10310000069E472DD8BF1A460321002026F08006D0
:1031100007910F9006960E920B9110907FE50699FD
:1031200041F0080106911D78194691E40893069B29
:10313000B24643F010030693069B8DF8672099066C
:103140003FF544AF069BDA0640F1D3830C9A134651
:103150001E680433F7170C9332463B4641E7089349
:103160003C4BB2461493069B8DF8672099063FF5B9
:10317000B1AE069BDA0640F1F1830C9A00271346A4
:10318000043316680C93AEE60C980893026800238B
:103190008DF89020024601219C4604328DF867305C
:1031A0000F93109324AB07910C920B910E933CE577
:1031B0000893069BB24643F010030693069B9E06B7
:1031C0003FF5E9AC069BD80640F1BA830C9A13464A
:1031D00004321E68002701230C92E6E408938DF860
:1031E0006720002D3FF4BCAC002301229C468DF8E3
:1031F00067300F93109324AB07928DF890500B9289
:103200000E9312E54046494621AA03F0DFF8002854
:103210007FF4ADAC9DF867C02EACDDF88CB050E506
:10322000012B7FF4DAAC002F08BF0A2E80F0E48176
:103230000DF1F80B30360BF8416D2EABCBEB0303E1
:103240000B93CDF838B0E2E4A07500088075000853
:103250007C7500088C750008652D40F38A801298F3
:1032600013990022002303F029FE002800F0498171
:10327000229BBA4901330BF1010B0122072BCDF838
:103280008CB0229384E8060000F3858308341B9BEE
:10329000119A934203DB069BDF077FF585AD229BE6
:1032A00016990133159A8B44072BCDF88CB0226008
:1032B0006160229300F3F4830834119B5D1E002D9E
:1032C0007FF772AD102D229BA54F40F3E2801026B0
:1032D0005A4604E00834103D102D40F3D9800133E4
:1032E0001032072B2392229327606660F2DD40465E
:1032F000494621AA03F06AF800287FF438AC2EACC6
:10330000239A229BE7E70A9B079A9E1A002E7FF7D3
:10331000FFAC102E229A924F1FDD4FF0100A5B4631
:1033200004E0103E102E04F1080415DD01321033C4
:10333000072A2393229284E88004F2DD404649461E
:1033400021AA03F043F800287FF411AC103E102EA0
:103350002EAC239B229AE9DC9B460132B344072A18
:10336000CDF88CB022922760666000F31882083492
:10337000CEE4119B229D012B0BF1010605F1010505
:1033800040F3C7810E9A0123072D239622602295D0
:10339000636000F3D7810834169A0135159B1644F3
:1033A000072D239622952360626000F3D7810834AD
:1033B000002312981399002203F080FD119B00282E
:1033C00040F0F1800E9A013B013501321E44072D79
:1033D000226022952396636000F3D5810834179A02
:1033E000013506EB020B1DAB072DCDF88CB02295F5
:1033F000626023607FF7D7AC4046494621AA02F0BD
:10340000E5FF00287FF4B3AB2EACDDF88CB0CBE445
:103410004046494621AA02F0D9FF00283FF40EADEC
:10342000FFF7A5BB002B4AD1069BDA0747D50DF164
:10343000F80B30230BF8413D2EABCBEB03030B9382
:10344000CDF838B0FFF7E3BB4046494621AA02F069
:10345000BDFF00287FF48BAB2EACDDF88CB091E47F
:103460004046494621AA02F0B1FF00287FF47FAB15
:103470002EACDDF88CB037E44046494621AA02F074
:10348000A5FF00287FF473AB2EACDDF88CB03CE4D4
:1034900093460133AB44072BCDF88CB022932760C1
:1034A00065607FF780AC4046494621AA02F08EFF56
:1034B00000287FF45CABDDF88CB02EAC74E42EAB4E
:1034C000CDF82CA00E93FFF7A2BB14980DF1B80B0A
:1034D000330943EA0773390906F00F020F461E4607
:1034E000835C0BF8013D56EA0703F1D15A462EAB37
:1034F0009B1ACDF838B00B93FFF789BB0223FFF777
:1035000054BB1B9D002D40F35282119A1099134613
:103510008A42A8BF0B461D460E99002D01EB020AF8
:103520000CDD0A46229BAB440133072BCDF88CB04F
:1035300084E82400229300F305830834109B002DB7
:10354000A8BF5B1B002B1D4640F38B80102D229BD8
:10355000034F40F3148210265A4608E0BC75000859
:103560006C7500080834103D102D40F307820133BC
:103570001032072B2392229327606660F2DD4046CB
:10358000494621AA02F022FF00287FF4F0AA2EACBF
:10359000239A229BE7E70C9900270A4604320E681B
:1035A0000C92FFF702BB03F1FF3ABAF1000F7FF76D
:1035B00016AFBAF1100F864FC8BF4FF0100B07DCE3
:1035C000D8E00834AAF1100ABAF1100F40F3D28003
:1035D00001351036072D2396229584E88008F0DD0A
:1035E0004046494621AA02F0F1FE00287FF4BFAA16
:1035F0002EAC239E229DE5E70DF1B80BCDF81CC043
:10360000304639460A22002303F0B2FC30323046FD
:1036100039460BF8012D00230A2203F0A9FC0646C7
:103620000F4656EA0703EBD1DDF81CC05EE7302BEE
:1036300000F042820E9B2EA8013B1A460E93821A7E
:1036400030230B9201F8013CFFF7E1BA40464946AE
:1036500021AA02F0BBFE00287FF489AADDF88CB015
:103660002EAC0E9A10991B9B0A441646119A93424F
:1036700040DB069AD5073DD4119AC6EB0A05D31A4A
:103680009D42A8BF1D46002D2F460BDD229AAB445C
:103690000132072ACDF88CB084E8C000229200F3F2
:1036A00087820834002FB4BF1D46DD1B002D7FF735
:1036B0007BAB102D229B464F7FF7EBAE10265A4670
:1036C00004E00834103D102D7FF7E2AE01331032D4
:1036D000072B2392229327606660F2DD404649461D
:1036E00021AA02F073FE00287FF441AA2EAC239A8F
:1036F000229BE7E7229A1698013215998344072AFC
:10370000CDF88CB021606060229200F331820834E1
:10371000B2E7069BD8073FF535AE0E9A0123072D79
:1037200023962260229563607FF758AE4046494653
:1037300021AA02F04BFE00287FF419AA2EAC239E8A
:10374000229D4CE64046494621AA02F03FFE002851
:103750007FF40DAA2EAC239E229D1DE640464946CD
:1037600021AA02F033FE00287FF401AA2EAC239E8A
:10377000229D1DE601355644072D2396229584E8A7
:1037800080047FF72BAE4046494621AA02F01EFE78
:1037900000287FF4ECA9239E229D2EAC1FE6404614
:1037A000494621AA02F012FE00287FF4E0A92EACBF
:1037B000DDF88CB0FFF7ACBA4FF02D0C764267EB1A
:1037C00047078DF867C0CDF83CA00123FFF7F3B998
:1037D0006C75000802F092FD002800F02D8125F0A4
:1037E0002003BAF1FF3F0B9300F07882472B05D1FD
:1037F000BAF1000F14BFD3464FF0010B069B43F400
:1038000080730F93139BB3F1000A129B0793B7BF0A
:103810005346002303F1004A2D23662D0D9300F03B
:103820007381462D00F070810B9B0220452B14BF45
:103830005F460BF101071BA98DE8810002911CA8CE
:103840001FA90390079A53460491404600F010FCCC
:10385000672D0E9002D0472D40F06681069BDB0756
:1038600040F159820E9BDE19079851460022002331
:1038700003F024FB002840F0C2811F9B9E4206D922
:1038800030215A1C1F9219701F9B9E42F9D80E9A24
:103890009B1A11930B9B472B1B9B00F0A981652D55
:1038A00040F3BB81662D109300F02882119B109A83
:1038B000934200F31682069BD90700F13C8222EA6C
:1038C000E2730B920D9A002A40F0878107930F9BB9
:1038D0009DF867C006930F92FFF7A1B927F007077D
:1038E0003B6812937B68139307F108030C93FFF76F
:1038F000F3BB069B0C9A13F0400F13463FF428AC21
:10390000B2F900600433F7170C9332463B46FFF7D9
:1039100068BB069BDB060BD4069B5F0608D50C9A9A
:10392000136804320C92BDF824201A80FFF760B8A7
:103930000C9A136804320C92099A1A60FFF758B86F
:10394000069B0C9A13F0400F13463FF441AC1688C7
:103950000432002701230C92FFF727B9069B0C9A2B
:1039600013F0400F13467AD00433168800270C93C7
:10397000FFF7B9BA19461D78FFF76AB893460133C5
:10398000AB44072BCDF88CB02293276065603FF7DE
:103990005DAE083465E64046494621AA02F016FDB0
:1039A00000287FF4E4A82EACDDF88CB06FE4229BF5
:1039B000B04901330BF1010B0122072BCDF88CB07C
:1039C000229384E8060050DC08342DB9119B1BB902
:1039D000069BDE077FF5E8A9229B1699013315980F
:1039E0000BEB0102072B239284E80300229300F3E0
:1039F000688108346D42002D6FDD102D9E4FC8BFC9
:103A0000102605DCAAE00834103D102D40F3A680F6
:103A100001331032072B2392229327606660F2DD78
:103A20004046494621AA02F0D1FC00287FF49FA815
:103A30002EAC239A229BE7E7904A914B069E472D96
:103A4000D8BF1A46032126F080060F9007910696EC
:103A500010900E920B919DF867C0FFF7E0B8043309
:103A6000166800270C93FFF73EBA4046494621AA44
:103A700002F0ACFC00287FF47AA82EAC1B9DDDF888
:103A80008CB0A2E741F0200106915D78591CFEF749
:103A9000DFBF0A980C9140420A901946FFF7D3B94C
:103AA0004046494621AA02F091FC00287FF45FA815
:103AB0002EACDDF88CB000E40E9A2EAB9B1A0B9363
:103AC000FFF7A5B84046494621AA02F07FFC00282E
:103AD0007FF44DA8239A229B2EAC1198013302EB60
:103AE000000B0E9A072BCDF88CB0229322606060F9
:103AF0007FF759A9D7E4CDF83CB0FEF709FF0C9742
:103B00000B900346FFF7D4B903201BA98DE80108E9
:103B100002911CA81FA90390079A5346049140469E
:103B200000F0A6FA5F460E900E9BDE190B9B462B0B
:103B30007FF49AAE0E9B1B78302B00F0EE801B9F1B
:103B40003E4491E64046494621AA02F03FFC002847
:103B50007FF40DA82EACDDF88CB0EFE401332A44DD
:103B6000072B2392229327606560ABDC0834B4E70F
:103B70004046494621AA02F029FC00287EF4F7AF0E
:103B80002EAC1B9BDDF88CB076E53346062E28BFA5
:103B900006230B9323EAE373DDF838C00793394B10
:103BA0000C97CDF83CC0CDF840C00E93FFF737B866
:103BB0004046494621AA02F009FC00287EF4D7AF0E
:103BC0001B9B119ADDF88CB0D31A2EAC6AE52D231D
:103BD0009C468DF86730FFF791BA07930F9B4FF023
:103BE0002D0C069300238DF867C00F93FFF71AB8CA
:103BF000DF1C11DB9B450FDB1093672556E6334630
:103C000045E626EAE6730F900C9710909DF867C082
:103C100007930B96FFF703B8023D013B002B1B9364
:103C2000BABF5B422D222B22092B8DF874508DF8E0
:103C3000752040F386800DF183000146124A82FB15
:103C40000326DA17C2EBA60606EB8602A3EB4202B6
:103C50003032092E334601F8012DEFDC0A463033AD
:103C6000DEB202F8016D904240F2A0800DF17602C2
:103C70000B460DE0BC7500086C75000888750008DF
:103C800084750008B47500086766666613F8016BF2
:103C9000834202F8016BF9D121AB5B1A0DF1760278
:103CA00013441DAA9B1A119A1793012A13440B93CC
:103CB00057DD0B9B002201330B93109223EAE37331
:103CC00000E64046494621AA02F080FB00287EF427
:103CD0004EAF2EAC1B9D239A229B8BE64FF0060B1A
:103CE0008CE5109B002BD8BFC3F10206119BC8BF07
:103CF0000126F3180B9323EAE373E3E5002B39DD88
:103D0000BBF1000F25D1069BDE0722D4109A22EAD0
:103D1000E2730B92D6E51F9BB9E507985146002246
:103D2000002303F0CBF800287FF409AFC7F10107A7
:103D30001B973E4498E5109B01330B9323EAE373F2
:103D4000C0E5303330228DF877308DF876201EAB09
:103D5000A7E7109B0BF1010633440B9323EAE373AF
:103D6000B0E5069B13F00103A3D110930B9B23EA4C
:103D7000E373A7E5BBF1000F12D1069BD8070FD460
:103D800001230B939EE50C9D28462E680430002EDF
:103D90005D780C90BEF65CAE4FF0FF36FEF758BE75
:103DA0000BF102030B9323EAE3738BE50DF176032A
:103DB00077E700BF2DE9F04588464F6EADF26C4DB8
:103DC0001997D8F81C70B1F80CE0B1F80EA007975D
:103DD000D8F824701AAC4FF480652EF0020E00263D
:103DE00069460094049402950595ADF80CE0ADF891
:103DF0000EA0099706960546FEF7B8FD041E07DBE0
:103E00002846694601F06CF9B04218BF4FF0FF3404
:103E1000BDF80C305B0605D5B8F80C3043F0400314
:103E2000A8F80C3020460DF26C4DBDE8F08500BFBF
:103E300070B5084C06460025084611461A4625600E
:103E4000FCF7DAFC431C00D070BD2368002BFBD0CC
:103E5000336070BDB80A002038B52F4B054618688E
:103E60000C4610B1836B002B36D0A28993B2180791
:103E70000CD52069A8B113F001021ED0636900229D
:103E80005B42A361A260F0B1002038BDD9063AD5EB
:103E9000580724D4206942F00803A3819BB200286C
:103EA000E9D103F42072B2F5007FE4D02846214620
:103EB00001F004FCA3892069DDE7990758BF626916
:103EC000A2600028E0D1A3891A06DED543F04003A2
:103ED000A3814FF0FF3038BDFEF746F9C5E7216BEF
:103EE00049B104F14003994203D0284601F05CF93E
:103EF000A28900232363206922F02402002392B2C6
:103F000084E80900C7E742F0400209232B604FF024
:103F1000FF30A28138BD00BF3805002038B5074CFE
:103F20000023054608462360FCF792FC431C00D0A2
:103F300038BD2368002BFBD02B6038BDB80A0020A9
:103F40002DE9F04F03690F6983B09F4200F38B8026
:103F5000013F01F1140600F1140A56F827305AF80F
:103F600027200133B2FBF3F8BB00009306EB0309F3
:103F700053440193B8F1000F3DD000231C46B446D2
:103F8000D6461A465CF804BBDEF800501FFA8BF3E5
:103F90004FEA1B4B03FB08220BFB08F303EB124316
:103FA00092B2A41A1FFA83FBAAB22244CBEB1544A7
:103FB00004EB224492B242EA0442E1454EF8042B5B
:103FC0004FEA24444FEA1342DCD2009B5AF80330F4
:103FD0008BB9019C231F9A450CD254F8043C4BB971
:103FE000A4F1080302E01A68043B1AB99A4507F1E4
:103FF000FF37F8D30761044601F092FE00282EDB5C
:1040000000235546194608F1010856F8042B2B6881
:1040100090B2081A120C99B2C2EB1343421803EB88
:10402000224392B242EA0342B14545F8042B4FEADB
:104030002341EAD25AF827200AEB87037AB91A1FDC
:1040400092450BD253F8042C42B9083B02E01A689F
:10405000043B1AB99A4507F1FF37F8D32761404668
:1040600003B0BDE8F08F002003B0BDE8F08F00BFC3
:104070002DE9F04F016C99B00446CDE90223259D4E
:1040800041B1426C012393408B604A6001F05CFCBB
:1040900000232364DDE90223002B994636DB00234D
:1040A0002B60A54B1A4609EA0303934217D0DDE9BA
:1040B0000267002200233046394602F0FFFE8046A8
:1040C00000282BD0249A01231360269B002B00F09C
:1040D000CB809A481860013819B0BDE8F08F42F2E1
:1040E0000F73249A1360029B002B00F0A680944863
:1040F000269B002BF0D0C378002B00F0B78000F196
:104100000803269A136019B0BDE8F08F039A0123C3
:1041100022F000492B60CDF80C90C2E717AA16AB2D
:104120008DE80C00204632463B4601F08FFE5FEAE8
:104130001955834640F08A80DDF85880179D6FF44A
:10414000826345449D42C0F295827E4A05F2124345
:10415000521B09FA02F9029A22FA03F049EA000016
:1041600002F0CEFB0123013DA1F1F8711293002270
:10417000754B02F087FA6AA3D3E9002302F036FCFC
:1041800069A3D3E9002302F07FFA064628460F46CA
:1041900002F0C6FB66A3D3E9002302F027FC024627
:1041A0000B463046394602F06FFA06460F4602F0DB
:1041B000B7FE3946059000223046002302F088FE03
:1041C000002840F0A481059B162B00F29D81DDE9BB
:1041D000022305985D4901EBC001D1E9000102F01D
:1041E00095FE002800F05082059B013B05930023BB
:1041F0000C93C5EB0805B5F1010A00F19F8100237E
:104200000693059B002BC0F290819A440B930023E8
:104210000993229B092B2BD8052B40F37786043B6F
:1042200022930025229B023B032B00F25586DFE8F8
:1042300013F0CF03C103B0026A06414B444AC9F3ED
:104240001300002814BF1846104651E7C7F31303A4
:1042500043F07F51CDF848803046A5F2FF3541F458
:104260004011DDF8588082E73A4835E7C31C48E73B
:10427000002161642046229101F03EFB4FF0FF33A4
:10428000229A07930D9301230890239220640A93A6
:10429000179B002BC0F2D080059A0E2A00F3CC8029
:1042A0002A4B03EBC203D3E90089239B002BC0F206
:1042B0009283DDE9026742464B463046394602F0BA
:1042C000BFFC02F02DFE824602F02AFB42464B461E
:1042D00002F08CFB02460B463046394602F0D2F91A
:1042E000079E089F0AF13005012E3D7002460B46DD
:1042F00007F1010562D00022174B02F077FB002284
:10430000002306460F4602F0D9FD002840F08180C8
:10431000CDF808B0DDF820A0DDF81CB006942AE046
:1043200061436F63A787D23FB3C8608B288AC63FBB
:10433000FB799F501344D33F0000F07FBD75000808
:10434000DC7500080EFCFFFF0000F83FF075000868
:10435000D0750008BC750008000024400022C84B3E
:1043600002F044FB0022002306460F4602F0A6FDA1
:10437000002840F0E08342464B463046394602F082
:104380005FFC02F0CDFD044602F0CAFA42464B46FD
:1043900002F02CFB02460B463046394602F072F919
:1043A00004F1300605F8016BCAEB0506B345024679
:1043B0000B46D3D1A246DDF808B0069C104619463C
:1043C00002F062F906460F464046494632463B46F1
:1043D00002F07EFD48B94046494632463B4602F06F
:1043E0006DFDB0B11AF0010F13D015F8018C6B1EE2
:1043F000089904E08B4200F0458413F8018DB8F170
:10440000390F03F101051A46F4D008F10103DBB2BC
:1044100013702046594601F097FA0022059B2A7036
:10442000249A01331360269B002B00F04A830898DE
:104430001D6019B0BDE8F08F0A9A002A00F0848050
:10444000229A012A40F30983079B5F1E099BBB4206
:10445000C0F2AF83DF1B079B002BC0F2A584069D33
:10446000079B069A20461A44012106929A4401F0BD
:1044700005FB064665B1BAF1000F09DDAA455346B2
:10448000A8BF2B46069AED1AD21A0692C3EB0A0A67
:10449000099B002B1ADD0A9B002B00F08383002F61
:1044A00010DD31463A46204601F092FB06465A4658
:1044B0003146204601F0ECFA80465946204601F08C
:1044C00043FAC346099BDA1B40F0A782204601212C
:1044D00001F0D4FA0B9B8046002B39DD01461A46C9
:1044E000204601F075FB229B8046012B40F39B8206
:1044F0004FF00009D8F8103008EB8303186901F079
:104500006FFAC0F120002DE001230C9371E60598AD
:1045100002F006FA32463B4602F0D0FC00287FF457
:1045200052AE059B013B05934DE6069A059BD21AB8
:104530005B420993002306920B936AE6CAF10003DB
:1045400006934FF0000A5CE6099F069D0A9E91E7DC
:10455000229B012B40F3B8824FF000090B9B002BEC
:10456000C8D10120504410F01F0000F08180C0F13C
:104570002003042B40F3C184C0F11C00069B0544BA
:10458000034406938244069B002B05DD59461A46D8
:10459000204601F06DFB8346BAF1000F05DD414670
:1045A0005246204601F064FB80460C9B002B40F0F5
:1045B0006D82079B002B40F39B820A9B002B71D1DD
:1045C000DDF82090079F4D4604E05946204601F053
:1045D000C5F9834658464146FFF7B2FC303005F82E
:1045E000010BC9EB0503BB424FF00A024FF0000379
:1045F000EBDB089B079A8446012AACBF9B1801336A
:104600001D464FF0000A594601222046CDF808C049
:1046100001F02EFB4146834601F082FB0028DDF8C5
:1046200008C040F3FC8215F8012C6B1E089904E0C9
:104630008B4200F0798213F8012D392A03F101052C
:10464000F6D001321A704146204601F07DF9002E65
:104650003FF4DFAEBAF1000F05D0B24503D05146AA
:10466000204601F071F93146204601F06DF9D0E69F
:104670001C2083E7034B029A5B1B02FA03F06FE5F1
:1046800000002440EEFBFFFF0C90B2E53146002312
:1046900020460A2201F062F90D9B0646002B40F3EA
:1046A00015840793002D05DD31462A46204601F08A
:1046B000DFFA0646B9F1000F40F0EE82B146089AE3
:1046C000079B1746013BD3180993029B03F0010394
:1046D0000A9341465846FFF733FC31460546584693
:1046E00001F01EFB4A4682464146204601F03CFB53
:1046F000C268034605F1300C002A40F0BD8119461E
:104700005846CDF81CC0069301F00AFB069B0290A8
:104710001946204601F018F9029ADDF81CC02AB9A2
:10472000229B1BB90A9B002B00F0B083BAF1000F4B
:10473000C0F2578205D1229B1BB90A9B002B00F0C7
:104740005082002A00F3BC82099B07F1010A9F42B4
:1047500087F800C0554600F0BF8259460A22002360
:10476000204601F0FBF84E458346314620464FF087
:104770000A024FF0000300F0798101F0EFF849469A
:1047800006460A222046002301F0E8F857468146F3
:104790009FE701230A93239B002B40F319821F46B6
:1047A0001E460D9307930021172F61640AD9012239
:1047B00004235B0003F114008742114602F1010259
:1047C000F7D26164204601F097F80E2E089020641D
:1047D0003FF65EAD002D3FF45BADDDE902230599A8
:1047E000CDE90E23002940F32682BA4B01F00F02D7
:1047F0000D1103EBC203E906D3E9006740F1E18143
:10480000DDE90E01B44B05F00F05D3E9082302F0F2
:1048100017FACDE902014FF003088DB13046394651
:10482000DFF8B492EA0705D5D9E9002302F0DEF8F3
:1048300008F101086D1009F10809F3D106460F4689
:10484000DDE9020132463B4602F0FAF9CDE9020108
:104850000C9B43B1DDE902010022A04B02F038FBC2
:10486000002840F0B582404602F05AF8DDE9022304
:1048700002F0BCF89A4B002201F006FF079B0646A7
:10488000A1F15077002B00F06881059BDDF81CC07A
:1048900013930A9B002B00F026828E4B002003EB23
:1048A000CC0353E902238F49CDF850C002F0C8F978
:1048B00032463B4601F0E6FEDDE90267CDE9100134
:1048C0003946304602F02CFB054602F029F8024634
:1048D0000B463046394601F0D5FEDDE91023303570
:1048E0005FFA85F8089D064685F800800F46013579
:1048F00002F0EEFA002840F0B98232463B46002032
:10490000764901F0BFFE02460B46DDE9100102F0D8
:10491000FDFA002840F0B382DDF850C0BCF1010F71
:1049200040F33A81089BCDF850A0CDF808B003EBD6
:104930000C09DDE910ABA0460FE032463B460020F3
:10494000664901F09FFE52465B4602F0C1FA00281C
:1049500040F090824D4500F01A81504659460022A1
:10496000614B02F043F800225F4B82468B46304693
:10497000394602F03BF80F46064602F0D1FA0446EB
:1049800001F0CEFF02460B463046394601F07AFE72
:104990003034E4B205F8014B52465B4606460F46FA
:1049A00002F096FA0028C8D0139BDDF808B0444600
:1049B00005932EE500230A93239B059A13440D9338
:1049C0000133002B079340F30A81079E3746EAE63E
:1049D00000230A93DFE6079B002B3FF76AAC40F009
:1049E000668240460022414B494601F0FFFFDDE967
:1049F000022302F081FADDF81C804646002800F010
:104A00008B80239B089DDB4305934146204600F0A5
:104A10009BFF002E7FF427AEFBE45946204601F0B1
:104A2000D7F8834652E5029B002B7FF461AD039BD0
:104A3000C3F31303002B7FF48FAD039B23F00047D8
:104A40003F0D3F05002F00F01E82069B0AF1010A70
:104A5000013306934FF0010980E5129A002A00F015
:104A6000A98103F23343099F069DFAE400F076FF23
:104A70005746064681462CE601462046CDF808C03A
:104A800000F062FF0122DDF808C04FE658464146BB
:104A900001F046F90028BFF68CAD059F594600236A
:104AA00020460A22013F059700F058FF0A9B8346E3
:104AB000002B7FF4EBAD0D9B002B40F3FC810793A3
:104AC0007EE50898FFF708BB029B002B7FF444ADFE
:104AD000ADE700BFF0750008C87600080000F03FA1
:104AE00000001C400000E03F000024400000144093
:104AF000229B022B7FF761AD079B002B81D14146A2
:104B00000522204600F02AFF80465846414601F023
:104B100007F900287FF775AF059A0899312301320C
:104B200005920B704D1C70E7059A312301320592F6
:104B3000089A137087E5DDF808B0069C69E44046E2
:104B400001F0EEFEDDE9022301F050FF0022BE4B32
:104B500001F09AFD0646A1F15077DDE9020100223D
:104B6000BA4B01F08FFD32463B46CDE9020102F01F
:104B7000CDF98046002840F0B280DDE902013246DE
:104B800007F1004302F0A4F930B1464639E7444644
:104B9000DDF850A0DDF808B0DDE90E23CDE90223F1
:104BA000FFF776BB5946099A204601F011F8834673
:104BB0008CE4099B0B9AFB1A1A4409970B92002765
:104BC00049E4DDE90E234FF00208CDE9022324E693
:104BD000012623960D96079600216164F2E51E4694
:104BE000FAE7002A15DD594601222046CDF808C013
:104BF00001F03EF84146834601F092F80028DDF8C6
:104C000008C040F34D81BCF1390F00F009810CF16F
:104C1000010CB24687F800C07D1C4E4613E504D156
:104C20001CF0010F01D0FEE4154615F8013C6A1E88
:104C3000302BF9D007E5059B5D42002D00F0C180C7
:104C4000DDE90E01824B05F00F0203EBC203D3E94D
:104C5000002301F0CBFE2D11CDE9020100F03081DF
:104C60007C4E4FF00208EB0705D5D6E9002301F092
:104C7000BDFE08F101086D1006F10806F3D1CDE97B
:104C80000201E5E5059A302301320592089A137076
:104C900031231370FFF7BDBB7168204600F02CFE76
:104CA0000546336906F10C019A1C92000C30FDF7A1
:104CB00013FD20462946012200F0DAFF8146FEE47A
:104CC000BCF1390F00F0AC800CF1010CB24687F852
:104CD00000C07D1C4E46B6E4B2464E4693E44FF00B
:104CE0000008464618E75A490CF1FF3301EBC301AF
:104CF0003246D1E9000114933B46CDF854C001F08F
:104D000075FEDDE90267CDE910013946304602F053
:104D100007F9054601F004FE02460B4630463946C7
:104D200001F0B0FCDDF854C0089A3035BCF1010F39
:104D3000157006460F4602F1010523D0089BCDF8F9
:104D400008A063445E469A46AB460022424B01F0FF
:104D50004DFE8946804602F0E3F8074601F0E0FD8B
:104D6000303702460B464046494601F08BFC0BF8B3
:104D7000017BD345E9D1B3460F460646149BDDF8C7
:104D800008A01D440022354BDDE9100101F07CFC38
:104D900032463B4602F09CF8002848D0139B05930E
:104DA00015F8018CFFF723BB069B079A9D1A002379
:104DB000FFF757BB169B099FC3F13603069DFFF70C
:104DC00050BBDDE90E234FF00208CDE902233FE599
:104DD000079B002B3FF4B3AE0D9D002D7FF7DCAE9B
:104DE000DDE9020100221C4B01F000FE06460F46E1
:104DF00008F10100CDE9026701F092FD02460B4681
:104E00003046394601F0F2FD0F4B002201F03CFC28
:104E1000059B0646013B1393A1F15077AC4638E55C
:104E20003922B2463A704E467D1CFFF7FEBBDDE9E3
:104E300010230020094901F025FC32463B4602F0D0
:104E400065F870B9A8E600BF00001C4000001440DF
:104E5000F0750008C8760008000024400000E03F1C
:104E6000154615F8013C6A1E302BF9D0139B0593AB
:104E7000FFF7CFBA4346A0461C46DDF808B0139BA7
:104E80000593FFF7B4BAB946FFF768BBBCF1390F19
:104E9000C6D0BAF1000F7FF7BCAE05F1310CB8E611
:104EA0007FF4B7AE1CF0010F3FF4B3AEABE64FF0AA
:104EB00000084646A5E5229B022B04DC0D9BFEE57F
:104EC0004FF00208C4E40D9B079315E6229B022BCA
:104ED000F9DC0D9BFFF7E5BB0025656429462046FC
:104EE00000F00AFD4FF0FF3307930D930123089064
:104EF000239520640A93FFF7CBB93FF444ABC0F18C
:104F00003C00FFF73BBB01230A9355E50125FFF762
:104F100089B900BF00293DD070B505460C4608B1DF
:104F2000836B7BB3B4F90C300BB9002070BD2846FD
:104F3000214600F031F8E36A064633B12846E169BC
:104F400098470028B8BF4FF0FF36A3891B061CD432
:104F5000216B41B104F14003994202D0284600F090
:104F600023F900232363616C21B1284600F01CF96A
:104F700000236364FDF7FEF80023A381FDF7FCF82E
:104F8000304670BDFDF7F0F8CCE72846216900F007
:104F90000BF9DDE7002070478B892DE9F0419AB2CB
:104FA0000D46110780463CD46A6843F40063002A2A
:104FB000AB8165DDAE6A002E4BD09BB203F480520C
:104FC000002192B2D8F80040C8F80010002A5BD047
:104FD0002A6D5F0705D569682B6B521A0BB1EB6B15
:104FE000D21A4046E9690023B047461C56D0AB8927
:104FF0002A6923F400639BB200212A60DA04AB81A2
:1050000069603BD4296BC8F8004011B305F1400337
:10501000994202D0404600F0C7F800202863BDE85E
:10502000F0812E69AEB191072C680CBF6B6900232B
:105030002E60A41BAB600AE0324623466F6A4046EE
:10504000E969B8470028A4EB0004064404DD002CFD
:10505000F2DC0020BDE8F081AB894FF0FF3043F077
:105060004003AB81BDE8F081AB892A6923F400637A
:105070009BB2AB81DB0469602A60C3D52865C1E7B8
:10508000EA6B002A96DCE4E701234046E969B04771
:10509000431C024619D0AB89AE6A9AE7D8F80010D3
:1050A0000029E1D01D2907D0162905D0AB8943F08E
:1050B0004003AB81BDE8F081AB89296923F400632B
:1050C0000022AB8185E806009CE7D8F80030002B71
:1050D000E1D01D2B01D0162BBED1C8F80040B8E797
:1050E00010B5044682B008B1836B53B1B1F90C001E
:1050F00008B902B010BD204602B0BDE81040FFF76D
:105100004BBF0191FDF730F80199EFE7F8B50C4678
:10511000224F0646FDF756FBBB685D6825F0030588
:10512000291B01F6EF7121F47F6121F00F01A1F538
:105130008054B4F5805F07DB30460021FDF794FB17
:10514000BB682B44984204D03046FDF73DFB00205D
:10515000F8BD30466142FDF787FB01300DD0104BA2
:10516000BA6819682D1B45F001053046091B5560CA
:105170001960FDF729FB0120F8BD30460021FDF73D
:1051800073FBBA68831A0F2BDEDD064C04492468D2
:1051900043F00103001B53600860D5E7440500207D
:1051A0008C0A00205009002000294ED02DE9F04142
:1051B0000C468046FDF706FB54F8047C6249A4F1D6
:1051C000080527F00102AB188E6858689E4220F04F
:1051D00003005AD0FE0758600BD454F8087C01F144
:1051E000080EED1BAC683A44744567D0EF68E76081
:1051F000BC601C186468E4070CD4544F9C680244DB
:10520000BC427CD0D86842F00103E06084606B60EF
:10521000AA5003E042F001036B60AA50B2F5007F90
:1052200014D2D20801EBC20301244868921004FA98
:1052300002F29C681043AC60EB6048609D60E560E2
:105240004046BDE8F041FDF7BFBA7047530A042B52
:1052500047D8930903F13804600001EB80008368AC
:105260003949834243D0596821F00301914202D960
:105270009B689842F7D1DA68EA60AB604046956077
:10528000DD60BDE8F041FDF79FBAFF07024407D497
:1052900054F8084C2D1BEB68A8682244C360986042
:1052A0002B4B42F001001B6868609A428D60C7D3A7
:1052B000284B40461968FFF729FFC1E719184968CC
:1052C000C90709D4D96802449B6842F00100D9603B
:1052D0008B606860AA50B3E742F001036B60AA508C
:1052E000AEE7142B14D803F15B046000B5E74A68FD
:1052F000A4100120A04002434A601A46BCE742F0D5
:1053000001034D610D61EC60AC606B60AA5097E7E2
:10531000542B04D8130B03F16E0460009DE7B3F522
:10532000AA7F04D8D30B03F17704600095E740F21D
:105330005450834204D8930C03F17C0460008CE742
:10534000FC207E2489E700BF440500204C05002096
:105350004C090020880A00209368002B00F0B180DF
:105360002DE9F04FB1F80CE083B01EF0080F0C46A9
:105370008146164628D00B6933B30EF002081FFA97
:1053800088F0356880B34FF0000BD846DFF8E4A210
:10539000B8F1000F00F08F80D0454346484628BF43
:1053A0005346E1695A46676AB847002840F3A88027
:1053B000B36883441B1AC0EB0808B360002BE7D125
:1053C000002003B0BDE8F08F48462146FEF744FDBB
:1053D000002840F04681B4F80CE035680EF0020871
:1053E0001FFA88F00028CED11EF0010B40F091800A
:1053F000D846B8F1000F58D01EF4007FA76862D0DD
:10540000B845BA46C0F0C2801EF4906F00F0C0806C
:1054100067692169236807EB47075B1A07EBD777B2
:10542000581C7F10404487423A463CBF07463A46E4
:105430001EF4806F009300F0FB8011464846FCF795
:10544000C5FE009B8246002800F00E811A462169A5
:105450000093FDF741F9A289009B22F4906242F08B
:105460008002A2810AEB0300C4F810A0FB1A676156
:10547000C24647462060A3605246594600F0D8F91C
:10548000A0682268C01BA060404602EB0A032360AC
:10549000B36883441B1AC0EB0808B360002B8FD09D
:1054A000B4F80CE0B8F1000FA6D1D5F800B0D5F8EB
:1054B000048008359DE7D5F800B0D5F8048008359C
:1054C00066E70020704720682369984203D8626924
:1054D000904580F08580474528BF474659463A4663
:1054E00000F0A6F9A3682268DB1B3A44A36022609F
:1054F000002B49D148462146FFF7F2FD002843D052
:10550000A38943F040034FF0FF30A38103B0BDE80F
:10551000F08F8046834682460090BAF1000F2BD070
:10552000009B002B4FD0D045434628BF53462068F0
:1055300021691F468842D4F808E0626903D90EEB5E
:10554000020C63455EDC934224DB1346676A4846DF
:10555000E1695A46B847071ED2DDB8EB070829D0E3
:10556000B368BB44DB1BC7EB0A0AB360002B3FF4F4
:1055700027AFBAF1000FD3D10023D5F800B0D5F88A
:1055800004A000930835C8E7384681E74746C2467D
:10559000206871E71A465946019300F049F9A2685C
:1055A0002168019BB8EB0708A2EB03020B44A26041
:1055B0002360D5D148462146FFF792FD00289FD1B0
:1055C000CDF80080CCE758460A21524600F0E6F8B4
:1055D000002841D001300123CBEB00080093A2E763
:1055E0006FF00043434528BF434693FBF2F3676ADD
:1055F00003FB02F34846E1695A46B84700283FF7E3
:1056000047AF7DE762465946CDF804C000F010F977
:105610002368DDF804C04846634423602146FFF751
:105620005FFDDDF804C000287FF46AAF674694E7A9
:10563000484600F073FC009B824600287FF412AFBE
:1056400048462169FFF7B0FDA3890C2223F08003AF
:105650009BB2C9F8002054E701230AF10108009326
:1056600061E74FF0FF30ACE60C23C9F80030A389A6
:1056700047E700BF00FCFF7F004870478C0900200F
:10568000014B1868704700BFAC0900200048704704
:105690005409002070B5084C0646002508461146FE
:1056A0001A462560FBF792F8431C00D070BD2368B2
:1056B000002BFBD0336070BDB80A00208B899AB2F2
:1056C00012F0020F3CD1F0B50C46B1F90E1091B0BA
:1056D0000029054619DB01AA00F01EFF002812DB95
:1056E000029B03F47043A3F50057B7FA87F7B3F5AD
:1056F000004F4FEA57172AD0A3894FF4806643F42E
:105700000063A3810BE0A3899AB212F0800F43F4E7
:105710000063A3810CBF4FF4806640260027284613
:105720003146FCF753FDA38940B31A4A43F0800386
:10573000EA63A3812060206166619FB911B0F0BD6A
:1057400001F1430301220B600B614A617047124B68
:10575000A26A9A42D0D1A3894FF480663343A381D1
:10576000E664DCE72846B4F90E1000F0E9FE0028F4
:10577000E4D0A38943F00103A381DFE79A05DDD4D8
:1057800004F1430243F002030121A381226022615C
:105790006161D3E76D200008E9280008830770B431
:1057A000C9B240D0541E002A3FD003788B4218BFA4
:1057B000431C05D11CE0ECB10278013C8A4217D0B1
:1057C00013F0030F184603F10103F4D1032C14D88E
:1057D00084B103788B420BD00519431C02E0027898
:1057E0008A4205D0AB42184603F10103F7D10020ED
:1057F00070BC7047204670BC7047024641EA0126E3
:1058000046EA0646136810467340A3F1013525EABF
:10581000030313F0803F02F10402D9D1043C032CAE
:105820001046EFD8D4E71446D0E71046E0E700BFB3
:105830008842F0B50DD98B1898420AD28118002AF7
:1058400054D09A1A13F8014D934201F8014DF9D141
:10585000F0BD0F2A48D940EA01039B0747D11546FE
:1058600000F1100401F1100353F8106C103D44F8DE
:10587000106C53F80C6C0F2D44F80C6C53F8086C3A
:1058800004F1100444F8186C53F8046C03F110038D
:1058900044F8146CE8D8A2F1100323F00F0302F0CF
:1058A0000F0E1033BEF1030F1944034421D90E46E5
:1058B00074461D1F56F8047B043C032C45F8047FF6
:1058C000F8D8AEF1040424F0030404342344214442
:1058D00002F0030252B1013B0A4411F8014B91421C
:1058E00003F8014FF9D1F0BD0346F3E7F0BD0346DD
:1058F000F1E77246EEE700BFC26C70B505460C4694
:1059000052B152F824308BB1196842F824100022A9
:1059100018461A61DA6070BD2122042100F062FD90
:10592000E86402460028ECD1002070BD012101FA94
:1059300004F6721D2846920000F054FD034600282C
:10594000F2D044608660E2E731B1C36C4A6853F834
:105950002200086043F82210704700BFF0B50C46E3
:1059600005460E6983B001F1140E0027DEF8001021
:10597000013788B2090C02FB003302FB01F198B237
:1059800001EB134300EB0341BE424EF8041B4FEA08
:105990001343EBDC3BB1A268964207DA04EB8602C4
:1059A000013653612661204603B0F0BD6168284688
:1059B00001310193FFF7A0FF0746226904F10C01B2
:1059C000023292000C30FCF787FEEA6C6168019BA2
:1059D00052F82100206042F821403C46DEE700BF3B
:1059E000030C1B04B3B90004102310F07F4F04BF55
:1059F0000002083310F0704F04BF0001043310F0B0
:105A0000404F04BF80000233002807DB420003D46C
:105A1000202070470023E8E7581C7047184670475D
:105A2000036813F0070207D0D90720D49A0720D4BF
:105A30009B0803600220704799B209B91B0C102221
:105A400013F0FF0F04BF1B0A0832190704BF1B091C
:105A50000432990704BF9B080232D90704D45B08BB
:105A600001D12020704701320360104670470020AA
:105A700070475B0803600120704700BF10B50C46FB
:105A80000121FFF739FF01224461026110BD00BF0F
:105A90002DE9F04F0E69156985B0AE420C4691466E
:105AA000C0F292802B4635461E46A36805EB0608D9
:105AB00061689845C8BF0131FFF71EFF00F1140A65
:105AC0000AEB880BDA45019005D25346002143F8D2
